:100000000C942A000C9447000C9447000C94470071
:100010000C9447000C9447000C9447000C94470044
:100020000C9447000C9447000C9447000C94470034
:100030000C9447000C9447000C9447000C94470024
:100040000C9447000C9447000C9447000C94470014
:100050000C94470011241FBECFE5D8E0DEBFCDBF12
:0C0060000E9441000C943600F894FFCF81
:10006C00EC010E944C000E944B00CE010E944D00FE
:06007C00CE010E944900C4
:0C00820014BA8FEF87BB83B388BBFDCF9F
:04008E000C940000CE
:040092000E94340094
:020096000895CB
:020098000895C9
:02009A000895C7
:00000001FF
