:100000000C942A000C940C020C940C020C940C021C
:100010000C940C020C940C020C940C020C940C0228
:100020000C940C020C940C020C940C020C940C0218
:100030000C940C020C940C020C940C020C940C0208
:100040000C940C020C940C020C940C020C940C02F8
:100050000C940C0211241FBECFE5D8E0DEBFCDBF4B
:10006000E4E5F0E040E017C0B591A5913591259108
:10007000059107FD0CC095918591EF01F92FE82FAF
:1000800005900D92A217B307D9F7FE0104C01D9287
:10009000A217B307E1F7E435F40731F70E944701EF
:0800A0000C94EB01F894FFCF72
:0800A800310A0D00300A0D00C1
:1000B000843008F072C0683008F06FC04130A1F59C
:1000C000813089F028F08230C9F0833011F1089531
:1000D0002AB381E090E002C0880F991F6A95E2F789
:1000E000822B8ABB089527B381E090E002C0880F7D
:1000F000991F6A95E2F7822B87BB089524B381E0AC
:1001000090E002C0880F991F6A95E2F7822B84BBAA
:10011000089521B381E090E002C0880F991F6A958D
:10012000E2F7822B81BB0895411137C0813091F0F5
:1001300028F08230D9F0833029F108952AB381E084
:1001400090E002C0880F991F6A95E2F7809582239C
:100150008ABB089527B381E090E002C0880F991F01
:100160006A95E2F78095822387BB089524B381E0E6
:1001700090E002C0880F991F6A95E2F7809582236C
:1001800084BB089521B381E090E002C0880F991FDD
:0C0190006A95E2F78095822381BB0895F8
:10019C000E9404022FE789EA93E0215080409040AE
:1001AC00E1F700C0000080ED0E948C0189E10E9403
:1001BC00BC0187E00E94BC010E94FE0180ED0E9400
:1001CC008C018BE60E94BC0181E00E94BC010E9464
:1001DC00FE0180ED0E948C018AE10E94BC0180E04E
:1001EC000E94BC010E94FE0180ED0E948C018BE1FB
:1001FC000E94BC0188E10E94BC010E94FE0180EDBE
:10020C000E948C0188E30E94BC0181E00E94BC0129
:06021C000E94FE0108959E
:10022200843070F5683070F5813079F028F08230D2
:10023200A9F08330E1F028C089B390E002C095951F
:1002420087956A95E2F78170089586B390E002C0BF
:10025200959587956A95E2F78170089583B390E04A
:1002620002C0959587956A95E2F78170089580B3EB
:1002720090E002C0959587956A95E2F7817008959E
:0C0282008FEF08958FEF08958FEF08951F
:10028E000E94F6010E94CE000E94DF010E94CE0164
:10029E00892B31F068EA70E080E00E94A60105C06B
:1002AE006CEA70E080E00E94A6012FEF89E698E1EB
:1002BE00215080409040E1F700C000002FEF84E312
:1002CE009CE0215080409040E1F700C00000DECF5E
:1002DE0094EA96BF06B607FEFDCF91B1987F98308F
:1002EE0071F483B984E886BF06B607FEFDCF81B1EF
:1002FE00887F883131F0803231F482E0089580E0D9
:0A030E00089581E0089583E008954A
:10031800CF93C82F84EA86BF06B607FEFDCF81B10A
:10032800887F8830B9F7C3B984E886BF06B607FE68
:10033800FDCF81B1887F883119F00E94FE01EACF94
:04034800CF910895B4
:10034C00CF92DF92EF926B01E82E06C09FEFC91A95
:10035C00D90AE90A0E940802F6018491E7FC80811F
:0C036C008111F4CFEF90DF90CF90089546
:1003780083B984E886BF06B607FEFDCF81B1887FC2
:10038800883221F0803321F481E0089580E00895D7
:0403980082E0089562
:10039C0040E067E082E00E94580067E082E00E9443
:1003AC001101811103C081E090E0089580E090E09C
:0203BC000895A2
:1003BE008AE10E946F0189E00E94BC018DE10E94DA
:0803CE00BC010E94FE0108952C
:1003D600EC010E9411020E941002CE010E9412023C
:0603E600CE010E940E0290
:1003EC0010BC8FEC89B988E18AB986E880BD089584
:0C03FC0084E986BF06B604FCFDCF08951E
:0804080011B880E280B90895EB
:080410005D9BFECF8CB908953D
:040418000C94000040
:04041C000E945200E8
:0204200008953D
:0204220008953B
:02042400089539
:00000001FF
