:100000000C942A000C94FE000C94FE000C94FE004C
:100010000C94FE000C94FE000C94FE000C94FE0068
:100020000C94FE000C94FE000C94FE000C94FE0058
:100030000C94FE000C94FE000C94FE000C94FE0048
:100040000C94FE000C94FE000C94FE000C94FE0038
:100050000C94FE0011241FBECFE5D8E0DEBFCDBF5B
:0C0060000E9498000C94E700F894FFCF79
:10006C00696E636F72726563742073656C6563741B
:10007C006F720000416468616D204D6168676F7537
:10008C00620A456D626564646564205379737465B6
:03009C006D730081
:1000A000EF92FF920F931F93CF93DF93CDB7DEB7FD
:1000B00064970FB6F894DEBF0FBECDBF7C012CE66F
:1000C00030E040E083E1F901DE011196742F0E94D7
:1000D000DA001C8A613631F013C00E94FA000F5F0B
:1000E0001F4F02C000E010E0F701E00FF11F828116
:1000F0008111F3CF10C00E94FA000F5F1F4F02C0A2
:1001000000E010E0E1E0F0E0EC0FFD1FE00FF11F78
:1001100080818111F0CF64960FB6F894DEBF0FBED8
:10012000CDBFDF91CF911F910F91FF90EF90089578
:10013000CF93DF93CDB7DEB7A0970FB6F894DEBFAD
:100140000FBECDBF0E94F20081E6898382E68A83DA
:100150002FE130E040E850E060E0CE0103960E94DD
:10016000C10061E6CE0101960E94500080E090E05F
:10017000A0960FB6F894DEBF0FBECDBFDF91CF9132
:020180000895E0
:10018200CF92DF92EF926A01E62EDC01280F391F2F
:10019200A217B30751F0F6014491E7FC40814D9359
:1001A2004FEFC41AD40AE40AF3CFEF90DF90CF9056
:0201B2000895AE
:1001B400992777FD05C005900D920197E1F7089501
:0A01C40001900D920197E1F70895F4
:1001CE00EC010E9403010E940201CE010E94040173
:0601DE00CE010E940001A9
:1001E40010BC8FEC89B988E18AB986E880BD08958E
:0801F4005D9BFECF8CB908955C
:0401FC000C9400005F
:040200000E94340024
:0202040008955B
:02020600089559
:02020800089557
:00000001FF
