:100000000C9436000C949A160C949A160C949A162A
:100010000C949A160C949A160C949A160C949A16A0
:100020000C949A160C949A160C949A160C949A1690
:100030000C949A160C949A160C949A160C949A1680
:100040000C949A160C949A160C949A160C949A1670
:100050000C949A160060006A80006A0072002D42BB
:1000600000720073800073007400011111241FBE20
:10007000CFE5D8E0DEBFCDBFE4E5F0E040E017C05B
:10008000B591A59135912591059107FD0CC09591EC
:100090008591EF01F92FE82F05900D92A217B30774
:1000A000D9F7FE0104C01D92A217B307E1F7EC36A1
:1000B000F40731F70E9465150C940416F894FFCFED
:1000C000256C6400526561643A20000D0A00256CBD
:0E00D00066005765696768743A20006B670028
:1000DE0068076C094C836A9074A07AC000806888A7
:0600EE0000846C82008119
:1000F400494E4600696E66004E414E006E616E00C8
:07010400286E756C6C2900E8
:06010B00286E696C29005A
:0101110003EA
:10011200A3EAB0E0EFE8F0E00C9466144C01590158
:10012200C756DF4F488359836A83C959D040212C6F
:10013200312C6E012BE8C20ED11C85E2782E2601ED
:1001420030E8632ECE018D569F4FC456DF4F998300
:100152008883CC59D0409C0140E8CF55DF4F28839B
:1001620039834A83C15AD040C756DF4F4881C959A3
:10017200D040C656DF4F5881CA59D040C556DF4FCE
:100182006881CB59D040FA01849167FD8081882330
:1001920009F4C9C3CF57DF4F19821882C158D04022
:1001A2008FEF9FEFCD57DF4F99838883C358D0409D
:1001B200CB57DF4F19821882C558D040A1E0B0E07A
:1001C200AC0FBD1FC957DF4FB983A883C758D040B2
:1001D200E0E8F0E0C757DF4FF983E883C958D04021
:1001E200CA01A62FE12CF12CFC012491A7FD20814C
:1001F20021111BC0E114F10401F19701C4010E9415
:10020200A612C756DF4F88819981AA81C959D04069
:100212008E0D9F1DA11DF7FCAA95C756DF4F88833F
:100222009983AA83C959D04008C00196A11D2532DD
:1002320009F3FFEFEF1AFF0AD7CFC756DF4F8881C6
:100242009981AA81C959D040FC012491A7FD20813E
:10025200253209F056C39C014A2F2F5F3F4F4F4F63
:10026200C256DF4F288339834A83CE59D040C756BE
:10027200DF4F288339834A83C959D040C756DF4F9D
:1002820088819981AA81C959D040FC012491A7FD96
:1002920020812B3241F4CF57DF4F28813981C15859
:1002A200D04024600BC02C32CCF02D3259F5CF5700
:1002B200DF4F28813981C158D0402160CF57DF4FAD
:1002C20039832883C158D0400196A11DC756DF4FFC
:1002D20088839983AA83C959D040D0CF203241F470
:1002E200CF57DF4F28813981C158D0402860E6CFEF
:1002F200233291F4CF57DF4F28813981C158D04042
:100302002061DCCF203341F4CF57DF4F2881398180
:10031200C158D0402260D2CF2A3299F50196A11D50
:10032200C756DF4F88839983AA83C959D040D50124
:10033200ED91FC911197CF0102968D939C93808150
:100342009181CB57DF4F99838883C558D04097FF5F
:100352003EC0CF57DF4F28813981C158D040B1E02C
:100362002B27CF57DF4F39832883C158D04091952F
:1003720081959109CB57DF4F99838883C558D04027
:1003820026C0BC018A2F0E94A911CB57DF4F998347
:100392008883C558D040C756DF4F288139814A81AA
:1003A200C959D040F901849147FD8081082E000C83
:1003B200990BC0970A9758F42F5F3F4F4F4FC7567C
:1003C200DF4F288339834A83C959D040E4CFCF57BE
:1003D200DF4F88819981C158D04080FF07C08D7F4F
:1003E200CF57DF4F99838883C158D040C756DF4F1C
:1003F20088819981AA81C959D040FC012491A7FD25
:1004020020812E3209F058C0CD57DF4F1982188251
:10041200C358D0409C014A2F2F5F3F4F4F4FC756C2
:10042200DF4F288339834A83C959D040F901549157
:1004320047FD50815A32D1F40296A11DC756DF4FB3
:1004420088839983AA83C959D040D501ED91FC9143
:100452001197CF0102968D939C9380819181CD5704
:10046200DF4F99838883C358D04026C0842FB901B7
:100472000E94A911CD57DF4F99838883C358D0407A
:10048200C756DF4F288139814A81C959D040F901C5
:10049200849147FD8081082E000C990BC0970A9722
:1004A20058F42F5F3F4F4F4FC756DF4F2883398392
:1004B2004A83C959D040E4CFCE0187569F4F0E944C
:1004C2001111182FC756DF4F2881C959D040C6567F
:1004D200DF4F8881CA59D040C556DF4F9881CB592A
:1004E200D040E22FF82F849197FD8081082E000CD6
:1004F200990B0E9443168936910509F45AC0B4F447
:100502008336910509F466C144F48532910509F4F4
:10051200A1C18136910529F1B3C18436910509F44F
:1005220048C0883691050CF42DC1AAC180379105C7
:1005320009F4CBC04CF48E36910509F419C18F36FB
:10054200910509F47CC09CC18537910509F454C01A
:100552008837910509F496C08337910509F090C157
:1005620058C1612F70E0A501C6010E94EE13892BCC
:1005720009F4B7C1C756DF4F88819981AA81C95949
:10058200D0409C014A2F2F5F3F4F4F4FC756DF4F3E
:10059200288339834A83C959D040FC012491A7FD9D
:1005A2002081A601BE016F577F4FC4010E9497169A
:1005B20095C1612F70E0950141E050E0C6010E94B3
:1005C200F609892B09F48DC1C756DF4F88819981BD
:1005D200AA81C959D0400196A11DC756DF4F888311
:1005E2009983AA83C959D040A601BE016F577F4F94
:1005F200C4010E94370972C1612F70E0950140E089
:1006020050E0C6010E94F609892B09F46AC1C75657
:10061200DF4F88819981AA81C959D0400196A11DD5
:10062200C756DF4F88839983AA83C959D040A60150
:10063200BE016F577F4FC4010E9416104FC1612F38
:1006420070E0950140E050E0C6010E94F609892B56
:1006520009F447C1C756DF4F88819981AA81C959D8
:10066200D0400196A11DC756DF4F88839983AA8384
:10067200C959D040A601BE016F577F4FC4010E94E5
:10068200E00E2CC1612F70E0950140E050E0C60100
:100692000E94F609892B09F424C1C756DF4F8881CD
:1006A2009981AA81C959D0409C014A2F2F5F3F4F9F
:1006B2004F4FC756DF4F288339834A83C959D040E9
:1006C200FC012491A7FD20814BC0950140E050E040
:1006D20060EF70E0C6010E94F609892B09F401C19E
:1006E200C756DF4F88819981AA81C959D0400196A6
:1006F200A11DC756DF4F88839983AA83C959D04069
:1007020086E02BE031E040E0F901DE01AD56BF4F5B
:10071200742F0E94D315D6012C9111963C911197FA
:1007220012964C91129713965C91139714966C91B2
:10073200149715967C91159716968C911697179685
:100742009C91A0E00E94EC1551F400E010E0CF551E
:10075200DF4F288139814A81C15AD040B9C028E788
:10076200A601BE016F577F4FC4010E94F707B6C0B2
:10077200612F70E09501A1014E0D5F1DC6010E941F
:100782000A0EAFC0612F70E0A501C6010E94EE13F0
:10079200892B09F4A6C0C756DF4F88819981AA81A7
:1007A200C959D0409C014A2F2F5F3F4F4F4FC75628
:1007B200DF4F288339834A83C959D040FC012491F1
:1007C200A7FD2081A601BE016F577F4FC4010E9481
:1007D2009A0484C0103809F084C0C756DF4F88815C
:1007E2009981AA81C959D0400196A11DC756DF4FF0
:1007F20088839983AA83C959D040D501ED91FC9190
:100802001197CF0102968D939C938081F60180838C
:100812005BC0103809F065C0C756DF4F88819981E7
:10082200AA81C959D0400196A11DC756DF4F8883BE
:100832009983AA83C959D040D501ED91FC911197B2
:10084200CF0103968D939C9320813181428100E0F8
:1008520010E03EC0103809F044C0C756DF4F88810F
:100862009981AA81C959D0400196A11DC756DF4F6F
:1008720088839983AA83C959D040F601708224C023
:10088200D6017C92C256DF4F288139814A81CE59E6
:10089200D040C756DF4F288339834A83C959D04095
:1008A200CF57DF4F19821882C158D040CB57DF4F44
:1008B20019821882C558D0408FEF9FEFCD57DF4F76
:1008C20099838883C358D04001E010E0462D9201FD
:1008D200BE016F577F4FC4010E94B10F8E0D9F1D45
:1008E20011C0C756DF4F88819981AA81C959D0406A
:1008F2000196A11DC756DF4F88839983AA83C959E0
:10090200D040C7017101E80EF91EE214F3044CF461
:100912008FE490E090936100809360008FEF9FEFEF
:1009220003C0170121CCC101CD55DF4FE2E10C9488
:0209320082142D
:10093400A6E2B0E0E0EAF4E00C9466149F8F8E8F98
:10094400798F688F122FFB010190F081E02DFA87D7
:10095400E987FB01C280D380248135813C8B2B8BBA
:100964008085918599A388A30680F781E02DFA8379
:10097400E983FA0180809180A280B38020E030E096
:10098400A901C501B4010E947A1687FF06C0B7FA0F
:10099400B094B7F8B0948DE204C0F985F2FF0CC3AB
:1009A4008BE2E981FA8180832B893C8921503109CA
:1009B40038872F8341E050E05A8B498B06C08B89DE
:1009C4009C8998878F831A8A198AD501C401BF77B5
:1009D4000097E0E8AE07EFE7BE07D9F4212F110F27
:1009E400330B2154310989819A8149895A89840FA9
:1009F400951F2A31310520F444EF50E060E003C034
:100A040048EF50E060E00E94AA1568EF70E080E0D3
:100A14001EC00197A048BF4730F1212F110F330B9F
:100A24002154310989819A8149895A89840F951FF2
:100A34002A31310520F44CEF50E060E003C040E07F
:100A440051E060E00E94AA1560E071E080E00E943D
:100A54001215E981FA81AF0160E8E984FA840B890F
:100A64001C899C01A1C220E030E0A901C501B401A8
:100A74000E947A161B821C82882309F467C0F0E85E
:100A8400FD832FE32E83212C312C20E030E040E243
:100A940051E46B817C818D819E810E949016F62E9B
:100AA400072F8D879B87A50194010E947F16181636
:100AB40054F03FEF231A330AFB820C834D854D8398
:100AC4005B855E83E2CF1C861B862B813C814D8136
:100AD4005E81C501B4010E947A1687FF3DC084ED92
:100AE40028168EEF380604F5EB85FC85EF2BE1F430
:100AF40020E030E040E85AE5C501B4010E949016B8
:100B04004B015C0120E030E040E85AE56B817C81D8
:100B14008D819E810E9490166B837C838D839E833E
:100B240021E030E03C872B8720E030E040E251E4D4
:100B34006B817C818D819E810E948C166B837C836A
:100B44008D839E8331E0231A3108BFCF40E84D8363
:100B54005FE35E83212C312C812F110F990B9BA312
:100B64008AA30E9443168B8FD7FC03C0DEA2CDA2BA
:100B740004C0E6E0F0E0FEA3EDA3FB8DF73641F4FC
:100B8400CD2809F01EC221E030E03EA32DA319C2F6
:100B94008B8D8D8B04C037FE25C296E69D8BEDA10F
:100BA400FEA13196FEA3EDA3FD89F63699F437FE36
:100BB40008C01B821C8220E82D833FE33E83212C46
:100BC400312C4B8D473631F08DA19EA1820D931DA2
:100BD4009EA38DA39B819B87EC81ED87FD81FE8B7A
:100BE4002E812A8F750164011D8E1C8E8C8D9D8D26
:100BF400EDA1FEA18E179F07C1F12B853D854E897E
:100C04005A8DC701B6010E948C160E94F20B2B016B
:100C14003C010E9452166CA38701760117FB1095C4
:100C240017F910952B853D854E895A8DC301B20164
:100C34000E94540B6B017C01F7FAF094F7F8F094DE
:100C440020E030E040E251E46B857D858E899A8D09
:100C54000E948C166B877D878E8B9A8F4C8D5D8D51
:100C64004F5F5F4F5D8F4C8FC1CF20E030E040EA93
:100C740050E46B857D858E899A8D0E9490162B0198
:100C84003C019B01AC01C701B6010E947A1687FDA5
:100C94000BC0A3019201C701B6010E947A1681110B
:100CA40006C0FCA1F0FD03C0412C512C3201A3016C
:100CB4009201C501B4010E944C164B015C012D89BF
:100CC400253611F0310102C0612C712C23014DA194
:100CD4005EA1441A550AC988DA8800E010E01C862F
:100CE4001B8689859A85807199279F8B8E8B6414C6
:100CF400750431F48B859C85892B09F49AC0A6C0B0
:100D0400DD8ECC8EE88DF98D808591850597C8168A
:100D1400D90680F72B813C814D815E81C501B401E8
:100D24000E948C160E94F20B6D877E878F87988BAA
:100D34000E945216CB01EE89FF89EF2B69F4892BAF
:100D440059F4FB8DF73641F477FE06C098012F5F06
:100D54003F4F3D8F2C8F43C04B855C85452BB1F4B1
:100D640077FE14C05FEFC51AD50AE981FA818C8D2C
:100D74009D8DE80FF91F9EE29083EF81F8853197EE
:100D8400F887EF8321E030E03C872B87E981FA8103
:100D9400EC0DFD1D1D8F0C8F8C8D9D8D892B49F0C5
:100DA40030E331934C8D5D8D415051095D8F4C8FF3
:100DB400F3CFC8018C0D9D1D2F813885201B310B6D
:100DC4006C01EFEFCE1ADE0AE981FA81E80FF91F10
:100DD400605D6083A9014150510958874F838501A3
:100DE400740117FB109517F910952B813C814D81E7
:100DF4005E816D857E858F8598890E94540B4B0199
:100E04005C01B7FAB094B7F8B09420E030E040E267
:100E140051E46B817C818D819E810E948C166B8351
:100E24007C838D839E8351E0651A71080C8D1D8D22
:100E34005ECFF985F4FF0AC0E981FA81EC0DFD1D4E
:100E44008EE2808396012F5F3F4F690149815A8169
:100E54004C0D5D1D5C874B87FA011082FD89F536C8
:100E640009F061C0E981FA8128A139A1E20FF31FD9
:100E74003197108237FE06C031942194310801E085
:100E840010E002C000E010E0E8A1F9A13197498127
:100E94005A81E40FF51F22E030E08AE0E82EF12CBD
:100EA400CF0149815A81841B950B2114310479F0B7
:100EB400C101B7010E943D15805D82931B01215041
:100EC40031098F819885019798878F83E9CF12160E
:100ED400130674F3FC013197E40FF51F012B11F491
:100EE4002BE201C02DE220830297E981FA81E80F09
:100EF400F91F2AA13BA1215431092A31310510F0EF
:100F040025E601C025E420832F813885225031094C
:100F140038872F83C816D90634F4AF0160E88B856F
:100F24009C850E94AA1549815A813A0180E8882E3D
:100F3400998591FF2EC090FD2CC0EF81F8851E1677
:100F44001F063CF5882DB3010E94121529813A81B0
:100F5400820F931F9C0149815A81241B350BE98917
:100F6400FA892E173F074CF0FC012081EF81F885A8
:100F7400E80FF91F20830197EDCF4F81588560E377
:100F840070E089819A818E0F9F1F0E9421161C8A0E
:100F94001B8A882DB3010E941215E984FA840B89F7
:100FA4001C899C01682DA3018E8D9F8D0E94140DB8
:100FB400A696E2E10C948214598553FF00CD80E299
:100FC400F0CC2CEF22162FEF32064CF04DA15EA18F
:100FD400241635060CF4DFCD55E65D8BFBCD35E6E6
:0A0FE4003D8BF8CD46E64D8BF5CDB0
:100FEE00A4E1B0E0EDEFF7E00C94661498878F83E0
:100FFE007A8369835C8B4B8B122FDB011296ED91FA
:10100E00FC91139714962D913C9115973E832D8349
:10101E00ED90FC90119716962D903C901797F7FD3A
:10102E0003C0E894E1F802C0E1E0F0E0C70180718E
:10103E0099279A878987E4FE1FC0AB89BC892C91BA
:10104E0011963C91119712964C91129713965C91B2
:10105E00139714966C91149715967C911597169676
:10106E008C91169717969C91A0E00E94EC1521F09A
:10107E008D819E81029702C08D819E81970128707D
:10108E0033273C872B87E3FC0197AB89BC894C90B7
:10109E0011965C90119712966C90129713967C9005
:1010AE00139714968C90149715969C9015971696E8
:1010BE00AC9016971796BC90A981BA811896CD90D0
:1010CE00DC901997B1E0CB1AD108D101AC0DBD1D42
:1010DE001C929C838B839F01281B390B3E872D8787
:1010EE00C70182709927988B8F87812F012E000C54
:1010FE00990BDC01A154B109BA8BA98B32E0C3164E
:10110E00D10434F489859A85892B09F04CC073C0BB
:10111E009201A301B401C501A0E00E94EC1581F17A
:10112E00B1E0CB1AD108C2018F7099278A30910590
:10113E0014F4C09602C0895A9F4FE989FA897A97AA
:10114E0048F49C012062215631092A31310510F4F0
:10115E000E942A16F101EC0DFD1D80832B813C812E
:10116E00215031093C832B839201A301B401C501A7
:10117E0004E00E94101429013A014B015C01BECF1C
:10118E008D859E85AB81BC818A0F9B1F1816190613
:10119E003CF21A161B060CF0B5CFEF85F889EF2B33
:1011AE0009F0BECFAFCFAB89BC892C9111963C9183
:1011BE00119712964C91129713965C911397149661
:1011CE006C91149715967C91159716968C9116978F
:1011DE0017969C91A0E00E94EC1569F0F101EC0DC0
:1011EE00FD1D31971083B2E0CB1AD108F101EC0D41
:1011FE00FD1D80E38083EB85FC85EF2B41F0F1E054
:10120E00CF1AD108F101EC0DFD1D80E28083A9817A
:10121E00BA8118962D913C911997215031092C19AC
:10122E003D09C20CD31CA60160E80D811E818F8181
:10123E0098850E94140D9C01EF81F8858081918123
:10124E0090FF09C0A981BA8112968D919C91139736
:10125E00821793070CF4C9016496E2E10C94821490
:10126E00ADE0B0E0EDE3F9E00C9466149A8789875F
:10127E007C836B83FA01DB011296CD90DC90139781
:10128E0014968D919C9115979E838D83ED90FC9075
:10129E001197FA82E98216960D90BC91A02DB8870F
:1012AE00AF83208031804280538064807580868039
:1012BE0097808101B42DF52DE62D7B868C869D863B
:1012CE009101A201B301C401A0E00E94EC154CF4FF
:1012DE000E949A158901B42FF52FE62F7B878C87F4
:1012EE009D87D7FC04C0E894E1F8FA82E982910167
:1012FE00A201B301C401A0E0ED80FE800E94EC15B6
:10130E001CF0898182FF04C081E0E81AF10805C053
:10131E0083FF03C091E0E91AF108CE0101965C014A
:10132E008AE0C82ED12C2B2F3F2F4E2F5B856C853C
:10133E007D858B819C810E94AF0AFC019101A201E7
:10134E00B301C401A0E00E94EC151CF0898182FF5C
:10135E0012C031970F8118850E0F1F1F9101A20128
:10136E00B301C401A0E00E94EC1514F08BE201C0A1
:10137E008DE2D80108C083FF07C03197AF81B885D1
:10138E00AE0FBF1F80E28C93E980FA80AB81BC81E7
:10139E0018962D913C911997215031092E1B3F0B18
:1013AE008F819885E80FF91FAF0160E80D811E81CE
:1013BE0089859A850E94140D9C01A985BA858D9107
:1013CE009C9190FF07C0EB81FC81828193818217F3
:0E13DE0093070CF4C9012D96E2E10C948214E1
:1013EC000F931F93CF93DF93FC01D90168387105DC
:1013FC0031F194F461387105B1F12CF46038710558
:10140C0009F478C09FC06238710509F459C064387A
:10141C00710509F46FC096C0603A710509F448C0B3
:10142C002CF46039710509F44BC08CC0603C71051B
:10143C0009F476C0603F710509F472C083C0CD9188
:10144C00DC911197CE0102968D939C93452B39F02C
:10145C009881892F880F880B908381835BC088814A
:10146C008083118268C0CD91DC911197CE010496D6
:10147C008D939C93452B99F088819981AA81BB818E
:10148C00AC01BD01770F440B542FBA0180839183BB
:10149C00A283B383448345834683478328C0088152
:1014AC0019812A813B81008311832283338345C0B8
:1014BC00CD91DC911197CE0102968D939C9323C014
:1014CC00CD91DC911197CE0108968D939C937881E8
:1014DC0069815A814B813C812D819E818F817083E2
:1014EC00618352834383348325839683878381E08E
:1014FC0090E02AC0CD91DC911197CE0102968D938C
:10150C009C93452BA1F099812881892F880F880BFA
:10151C002083918382838383848385838683E6CF30
:10152C00CD91DC911197CE0102968D939C930881FD
:10153C001981008311831282138214821582168200
:10154C001782D5CF80E090E0DF91CF911F910F9162
:02155C000895F0
:10155E00A2E1B0E0E5EBFAE00C946614FC010A8B14
:10156E001B832C83732E642E552E462E7D83CC86A4
:10157E00D886BF82AE82868197819B878A87D50166
:10158E004D915C91228133818085918501971C015B
:10159E0037FF02C021E030E0EA85FB85E80FF91F36
:1015AE0010824701E1E0F0E0FA83E983C9018E1968
:1015BE009F099E878D87DA01A270BB27B88BAF87F4
:1015CE00B885BB0FBB0BB98B1214130474F0A98131
:1015DE00BA81AB2B09F05CC0AE81BF818D919C911D
:1015EE0011978F7E8D939C9353C02A893B814C819A
:1015FE00572D662D752D842D9D81A0E00E94EC1532
:10160E00B1F1E1E02E1A3108FC85F987AF2EB884CE
:10161E00C988DC2CEC2CFC2C0C2D1C2D2A893B8132
:10162E004C81572D662D752D842D9D810E94B815E8
:10163E00C90129839A83EA85FB85E20DF31D805D3E
:10164E00808381E0881A91082A893B814C81572D2D
:10165E00662D752D842D9D810E94BA152A8B3B8394
:10166E004C83752E662E572E482E9D83ADCF8D85BD
:10167E009E85880D991D181619061CF2181419044A
:10168E000CF0A5CFEF85F889EF2B09F0BACF9FCFDD
:0A169E00C1016296E2E10C9482148F
:1016A800A5E1B0E0EAE5FBE00C94661447015801B7
:1016B8000E9490162B013C01A80197010E944C162C
:1016C800162FC72ED82EF92E862F9C2DAD2DBF2D67
:1016D80089839A83AB83BC83AA81FB81EC81ED80EB
:1016E8003E802F8008850D8B5E2F5F71212F3A2F4A
:1016F8004F2F60E070E080E090E021153105410552
:1017080000E15007610571058105910509F05EC08A
:101718005E2F6E2D732D822D9D8904E30E94101477
:101728002D873E874F87588B698B7A8B8B8B9C8B49
:101738008D859E8597708F3F974009F447C0A30118
:101748009201612F7C2D8D2D9F2D0E944B169B01A0
:10175800AC01C501B4010E947A168823B9F1498603
:101768005A866B867C8629853A854B855C85C501BA
:10177800B4010E944C16B62E872E982EA92E262F1D
:10178800372F482F592F612F7C2D8D2D9F2D0E948B
:101798007A16811118C02B2D8B2D982DA92DBA2DB5
:1017A80089839A83AB83BC833A814B815C816E2D9C
:1017B800732D822D9D89A1E00E94F815122FC32E4A
:1017C800D42EF52E03C01B2D6401FA2C612F7C2D1D
:0C17D8008D2D9F2D6596E2E10C9482148B
:1017E4004F925F926F927F928F929F92AF92BF922D
:1017F400CF92DF92EF92FF92CF93DF93CDB7DEB714
:1018040028970FB6F894DEBF0FBECDBF6B017C01E5
:10181400DC01CB0147E1B695A795979587954A9545
:10182400D1F799278F579109873191059CF597FD39
:1018340036C088248A94982C3FE7A32EB12C04C088
:10184400B594A794979487948A95D2F7D501C40147
:101854008C219D21AE21BF21892B8A2B8B2BD1F08A
:1018640020E030E040E85BE7C701B6010E944C1677
:101874006D837E838F839887F7FE04C0C80CD91CC0
:10188400EA1CFB1C80949094A094B094C820D920A6
:10189400EA20FB205C2D4D2D3E2D2F2D21C020E074
:1018A40030E040E85BE7C701B6010E944C1669834B
:1018B4007A838B839C83F7FE0FC0D701C601880F00
:1018C400991FAA1FBB1F892B8A2B8B2B19F350E05E
:1018D40040E030E82FEB04C050E040E030E020E08E
:1018E400652F742F832F922F28960FB6F894DEBF9E
:1018F4000FBECDBFDF91CF91FF90EF90DF90CF90DF
:10190400BF90AF909F908F907F906F905F904F901B
:02191400089534
:10191600FF920F931F93CF93DF93CDB7DEB7C456D5
:10192600D1090FB6F894DEBF0FBECDBF00916E0091
:1019360010916F00209170003091710040916A0003
:1019460050916B0060916C0070916D0080917300F6
:101956000E9409130E9471129F938F937F936F9336
:1019660080EC90E0A0E0AF939F938F931F920F2E91
:10197600F4E6FF2EF02DFF928E010F5F1F4F1F938F
:101986000F930E94281564EC70E080E00E94FC141E
:10199600C8010E94E6146BEC70E080E00E94FC1423
:1019A6000E94C6159F938F937F936F938EEC90E062
:1019B600A0E0AF939F938F931F92FF921F930F9375
:1019C6000E94281562ED70E080E00E94FC14C801B8
:1019D6000E94E6146BED70E080E00E94FC146BEC54
:1019E60070E080E00E94FC146BEC70E080E00E94E6
:1019F600FC148FE19EE40197F1F700C000000FB6DA
:101A0600F894DEBF0FBECDBFCC59DF4F0FB6F894AA
:101A1600DEBF0FBECDBFDF91CF911F910F91FF901B
:021A2600089521
:101A28002F923F924F926F927F928F92AF92BF9276
:101A3800CF92DF92EF92FF920F931F93CF93DF9392
:101A4800CDB7DEB766970FB6F894DEBF0FBECDBF31
:101A58005C013A01862E6901C701817099279C8B28
:101A68008B8BE0FC1DC020173107D4F47801EC18EB
:101A7800FD08FE8AED8AA70191E1E916F10410F04C
:101A880040E150E060E270E0CE0101969A8B898BCC
:101A98000E94211689899A891C0120E8422E0BC0D0
:101AA8009601682DA301C5010E94A612C016D10691
:101AB800ECF2C60125C090E1E916F10458F020E1E6
:101AC80030E0642DA101C5010E94A61280E1E81A48
:101AD800F108F1CF2D893E892F70332789899A899A
:101AE800AC0160E8C5010E94A6128B899C89892BEC
:101AF80031F49601682DA301C5010E94A612C80100
:101B080066960FB6F894DEBF0FBECDBFDF91CF91BA
:101B18001F910F91FF90EF90DF90CF90BF90AF9003
:0E1B28008F907F906F904F903F902F90089578
:101B360010C00E94601658F00E94591640F029F411
:101B46005F3F29F00C94741651110C9468160C948E
:101B560094160E94AA1368F39923B1F3552391F3BF
:101B6600951B550BBB27AA2762177307840738F006
:101B76009F5F5F4F220F331F441FAA1FA9F335D063
:101B86000E2E3AF0E0E832D091505040E695001C17
:101B9600CAF72BD0FE2F29D0660F771F881FBB1FD1
:101BA600261737074807AB07B0E809F0BB0B802DAF
:101BB600BF01FF2793585F4F3AF09E3F510578F0DB
:101BC6000C9474160C9468165F3FE4F3983ED4F3B5
:101BD600869577956795B795F7959F5FC9F7880FAF
:101BE600911D9695879597F90895E1E0660F771F01
:101BF600881FBB1F621773078407BA0720F0621B92
:0E1C0600730B840BBA0BEE1F88F7E095089560
:101C1400CF93DF93DC01F90164387105D9F164F4E1
:101C24006138710521F16238710509F440C06038EA
:101C3400710509F054C02EC060397105C1F184F4F6
:101C44006838710509F04BC0C081D181CE0102967C
:101C540091838083E881F981ED93FC9340833CC0B8
:101C6400603A7105B9F0603C7105A1F038C0C081DB
:101C7400D181CE01029691838083E881F981ED932D
:101C8400FC93052E000C660B770B40835183628313
:101C9400738322C0C081D181CE0102969183808357
:101CA400E881F981ED93FC935183408315C0C08191
:101CB400D181CE01029691838083E881F981ED93ED
:101CC400FC9351834083852F880F880B8283838301
:101CD400848385838683878381E090E002C080E0EB
:081CE40090E0DF91CF9108951B
:101CEC000FC00E94591638F00E94601620F0952300
:101CFC0011F00C9474160C94941611240C94681610
:101D0C000E94AA1370F3959FC1F3950F50E0551FD5
:101D1C00629FF001729FBB27F00DB11D639FAA2734
:101D2C00F00DB11DAA1F649F6627B00DA11D661F83
:101D3C00829F2227B00DA11D621F739FB00DA11DA4
:101D4C00621F839FA00D611D221F749F3327A00D5E
:101D5C00611D231F849F600D211D822F762F6A2FFA
:101D6C0011249F5750409AF0F1F088234AF0EE0F5F
:101D7C00FF1FBB1F661F771F881F91505040A9F78C
:101D8C009E3F510580F00C9474160C9468165F3FBE
:101D9C00E4F3983ED4F3869577956795B795F795C8
:101DAC00E7959F5FC1F7FE2B880F911D9695879540
:041DBC0097F90895F6
:101DC000A2E0B0E0E6EEFEE00C9466141C014B01CC
:101DD000FA01DB0112962D913C91139714964D90C8
:101DE0005C9015978D919C9111979A838983169693
:101DF0006D907C90179737FD03C08D7F9A83898300
:101E000000811181228133814481558166817781EE
:101E1000FE0131965F0188E0C82ED12C7201C40109
:101E20000E94AF0A298124FF06C00197F301E80F41
:101E3000F91F20E32083298123FF06C00197F301C6
:101E4000E80FF91F20E22083E980FA80D401189678
:101E50002D913C91199721503109281B390B860D82
:101E6000971DAC0160E88201C1010E94140D9C0124
:101E7000F1018081918190FF08C0D40112968D916B
:101E80009C911397821793070CF4C9012296E2E103
:041E90000C94821418
:101E940011C00E94591638F00E94601620F039F4DF
:101EA4009F3F19F426F40C9494160EF4E095E7FB86
:101EB4000C947416E92F0E94AA1358F3BA176207F8
:101EC40073078407950720F079F4A6F50C94671638
:101ED4000EF4E0950B2EBA2FA02D0B01B901900141
:101EE4000C01CA01A0011124FF27591B99F0593F85
:101EF40050F4503E68F11A16F040A22F232F342FCD
:101F04004427585FF3CF469537952795A795F0401A
:101F14005395C9F77EF41F16BA0B620B730B840B2F
:101F2400BAF09150A1F0FF0FBB1F661F771F881FE7
:101F3400C2F70EC0BA0F621F731F841F48F487953F
:101F440077956795B795F7959E3F08F0B0CF939531
:0E1F5400880F08F09927EE0F9795879508954E
:101F62002F923F924F926F927F928F92AF92BF9237
:101F7200CF92DF92EF92FF920F931F93CF93DF9353
:101F8200CDB7DEB727970FB6F894DEBF0FBECDBF31
:101F92006C017B013901842E980184E0282E81E0B6
:101FA200382E80E0482E87E0F101AE014F5F5F4F8F
:101FB200DA01742D0E94D315F70102811381A480E6
:101FC200B580E080F18061147104810419F43A0152
:101FD200F0E88F2E2115310529F4882DB3010E94D6
:101FE20012159C0117FD04C00217130708F498018B
:101FF2008501682DA301C6010E94140D27960FB614
:10200200F894DEBF0FBECDBFDF91CF911F910F912C
:10201200FF90EF90DF90CF90BF90AF908F907F9026
:0A2022006F904F903F902F900895AB
:10202C00A2E0B0E0ECE1F0E10C9466143C014B0151
:10203C00FA01DB0112962D913C91139714964D9059
:10204C005C9015978D919C9111979A838983169624
:10205C002D903C90179737FD03C08D7F9A83898311
:10206C000081118122813381448155816681778180
:10207C00FE0131965F018AE0C82ED12C7201C40199
:10208C000E94AF0AE980FA80D40118962D913C91F8
:10209C00199721503109281B390B820D931DAC0166
:1020AC0060E88201C3010E94140D9C01F301808140
:1020BC00918190FF08C0D40112968D919C91139739
:1020CC00821793070CF4C9012296E2E10C94821456
:1020DC006F927F928F92EF92FF920F931F93CF93F9
:1020EC00DF93CDB7DEB761970FB6F894DEBF0FBEA6
:1020FC00CDBFFE01319651E1DF011D925A95E9F7F2
:10210C00A2E0B1E0BA83A9839C838B8377FF09C0DB
:10211C008FE490E090936100809360008FEF9FEFCD
:10212C0019C03901842E7C01615071097F836E8343
:10213C009801682DA301CF010E94B71448855985D9
:10214C002E813F814217530708F49A01F701E20FE1
:10215C00F31F108261960FB6F894DEBF0FBECDBF91
:10216C00DF91CF911F910F91FF90EF908F907F9007
:04217C006F900895C3
:1021800088249924F401E401B0E49F93AA279A15C6
:102190008B049C04ED05FE05CF05D007A10798F43C
:1021A000AD2FDC2FCF2FFE2FE92D982C892E982FC5
:1021B000872F762F652F542F432F322F2227B85089
:1021C00031F7BF9127C01B2EBF91BB27220F331FB2
:1021D000441F551F661F771F881F991F881C991C55
:1021E000EE1FFF1FCC1FDD1FAA1FBB1F8A149B04FD
:1021F000EC05FD05CE05DF05A007B10748F08A18FC
:102200009B08EC09FD09CE09DF09A00BB10B216089
:102210001A94E1F62EF49401AF01BE01CD01000C39
:0222200008951F
:10222200CF92DF92EF92DC0190E0292F30E0220F73
:10223200331F6901032E000CEE086E2DA6014252D7
:102242005F4F6F4F6A01E62EFA018491E7FC8081AD
:1022520081110DC02F5F3F4F032E000C440B225201
:102262003F4F4F4FF901849147FD808124C0CD90AB
:10227200DD90EC901297F6014491E7FC40818413C3
:1022820015C02F5F3F4F032E000C440B22523F4FCD
:102292004F4FF901949147FD90815FEFC51AD50A1E
:1022A200E50ACD92DD92EC92129701C09F5F9B30BE
:0E22B20008F4BBCF892FEF90DF90CF900895F6
:1022C0000F931F93CF93DF93DB012D913C911197D7
:1022D00030FF25C017964D915C91189715962D915A
:1022E0003C9116974217530778F41296ED91FC91A2
:1022F0001397808312962D913C9113972F5F3F4F38
:1023000013963C932E93129717962D913C91189704
:102310002F5F3F4F18963C932E93179715C01D962D
:10232000ED91FC911E97309719F48FEF9FEF0CC041
:102330008B01EC010995892BC1F7F8018781908504
:10234000019690878783CE01DF91CF911F910F91E6
:022350000895EE
:10235200CF939B01482FF901849147FD8081803200
:10236200C9F1682F082E000C770B6950710965308E
:10237200710580F18B3249F5A0E0B0E02F5F3F4F4D
:102382004F4F02C0A0E0B0E080E090E0CAE0F90167
:10239200649147FD6081062E000C770B6053710932
:1023A2006A30710560F4C89FF001C99FF00D1124D5
:1023B2002F5F3F4F4F4FCF01861B970BE8CFAB2BC1
:1023C20069F491958195910909C08D32D9F6A1E000
:1023D200B0E0D4CF2F5F3F4F4F4FBDCFCF91089585
:1023E2000E9484162FE789EA93E0215080409040B2
:1023F200E1F700C0000080ED0E949D1489E10E9477
:10240200771587E00E9477150E946E1680ED0E9474
:102412009D148BE60E94771581E00E9477150E9439
:102422006E1680ED0E949D148AE10E94771580E06D
:102432000E9477150E946E1680ED0E949D148BE11A
:102442000E94771588E10E9477150E946E1680ED32
:102452000E949D1488E30E94771581E00E947715FF
:062462000E946E160895B1
:10246800E89409C097FB3EF4909580957095619526
:102478007F4F8F4F9F4F9923A9F0F92F96E9BB27DC
:102488009395F695879577956795B795F111F8CF58
:10249800FAF4BB0F11F460FF1BC06F5F7F4F8F4FC3
:1024A8009F4F16C0882311F096E911C0772321F0B9
:1024B8009EE8872F762F05C0662371F096E8862F51
:1024C80070E060E02AF09A95660F771F881FDAF7A8
:0A24D800880F9695879597F90895EF
:1024E200B099FECFF89421E040E050E0BA0127C055
:1024F20088B3826088BB0000440F551F661F771F98
:1025020088B38D7F88BB0000B09B04C04F5F5F4FD4
:102512006F4F7F4F9F5F01C090E0983148F3605842
:1025220090E008C088B3826088BB000088B38D7FCA
:1025320088BB9F5F8091720020E0981798F3211169
:0A254200EBCF7894CB01BA010895A5
:10254C006F927F928F92CF92DF92EF920F931F93A5
:10255C00CF93DF938C016A01E62EE9013A01862EB6
:10256C00620E731E811C37FD8A94C614D704E804CE
:10257C0079F0F6018491E7FC8081B801082E000CFB
:10258C00990B0E9460118FEFC81AD80AE80AEDCF98
:10259C00CE01DF91CF911F910F91EF90DF90CF90F3
:0825AC008F907F906F9008955D
:1025B4000E94B21388F09F5798F0B92F9927B7510A
:1025C400B0F0E1F0660F771F881F991F1AF0BA95D3
:1025D400C9F714C0B13091F00E946716B1E00895B4
:1025E4000C946716672F782F8827B85F39F0B93FA6
:1025F400CCF3869577956795B395D9F73EF4909586
:0E2604008095709561957F4F8F4F9F4F089581
:102612008F929F92AF92BF92CF92DF92EF92FF92F0
:102622000F931F934A015B016801790197B392608E
:1026320097BB98B39D7F98BB97B39E7F97BB90E063
:102642000E942C14C501B4010E940F16C701B601E5
:102652000E9418161F910F91FF90EF90DF90CF907C
:0A266200BF90AF909F908F900895F5
:10266C008F929F92AF92BF92CF92DF92EF92FF9296
:10267C0083E00E9460134B015C01609162007091D9
:10268C00630080916400909165000E9436126B018A
:10269C007C01C501B4010E943612A70196010E946B
:1026AC004B16FF90EF90DF90CF90BF90AF909F9024
:0426BC008F9008955E
:1026C000CF92DF92EF92FF92CF93DF93D82FC0E0AB
:1026D000C12CD12C760107C00E947112C60ED71EE4
:1026E000E81EF91ECF5FCD17B8F32D2F30E040E084
:1026F00050E0C701B6010E94CF14CA01B901DF91B1
:0C270000CF91FF90EF90DF90CF900895F4
:10270C00990F0008550FAA0BE0E8FEEF16161706F6
:10271C00E807F907C0F012161306E407F50798F05E
:10272C00621B730B840B950B39F40A2661F0232B77
:10273C00242B252B21F408950A2609F4A140A695F3
:08274C008FEF811D811D08952E
:1027540057FD9058440F551F59F05F3F71F047954E
:10276400880F97FB991F61F09F3F79F08795089533
:10277400121613061406551FF2CF4695F1DF08C052
:10278400161617061806991FF1CF8695710561056F
:042794000894089508
:10279800A1E21A2EAA1BBB1BFD010DC0AA1FBB1F5D
:1027A800EE1FFF1FA217B307E407F50720F0A21BCF
:1027B800B30BE40BF50B661F771F881F991F1A943C
:1027C80069F760957095809590959B01AC01BD0166
:0427D800CF01089590
:1027DC00FA0160387105CCF0623871051CF0633871
:1027EC00710599F4A081B1819D012C5F3F4F31831C
:1027FC0020834D915D916D917C91FC0140835183BF
:10280C006283738381E090E0089580E090E0089506
:10281C0097FB10F8169400080F93083098F00850A6
:10282C00232F342F452F562F672F782F892F902D3C
:10283C00F4CF059497958795779567955795479518
:0C284C00379527950A95AAF70F9108957B
:102858008130910521F481E08093720010C08330AB
:10286800910521F483E08093720009C0029721F456
:1028780082E08093720003C081E08093720088B385
:0A2888008D7F88BB0E947112089535
:1028920094EA96BF06B607FEFDCF91B1987F9830B5
:1028A20071F483B984E886BF06B607FEFDCF81B115
:1028B200887F883131F0803231F482E0089580E0FF
:0A28C200089581E0089583E0089571
:1028CC002F923F924F925F926F927F928F929F9234
:1028DC00AF92BF92CF92DF92EF92FF920F931F9322
:1028EC00CF93DF93CDB7DEB7CA1BDB0B0FB6F894D3
:0828FC00DEBF0FBECDBF099441
:102904002A88398848885F846E847D848C849B847B
:10291400AA84B984C884DF80EE80FD800C811B8189
:10292400AA81B981CE0FD11D0FB6F894DEBF0FBEB8
:06293400CDBFED01089586
:10293A00CF93C82F84EA86BF06B607FEFDCF81B1C2
:10294A00887F8830B9F7C3B984E886BF06B607FE20
:10295A00FDCF81B1887F883119F00E946E16EACFC7
:04296A00CF9108956C
:10296E00A2E0B0E0EDEBF4E10C9474148C013A8328
:10297E0029839E012F5F3F4F0E948900F80120811D
:10298E0024FF02C08FEF9FEF2296E4E00C94901488
:10299E00052E97FB1EF400940E943B1657FD07D0A0
:1029AE000E94CC1307FC03D04EF40C943B165095AA
:0E29BE004095309521953F4F4F4F5F4F089544
:1029CC000F931F93CF93DF938C01C0E0D0E003C033
:1029DC000E9488162196F801EC0FFD1F8081811151
:0C29EC00F7CFDF91CF911F910F9108955C
:1029F800CF92DF92EF926B01E82E06C09FEFC91AC3
:102A0800D90AE90A0E948816F6018491E7FC8081B8
:0C2A18008111F4CFEF90DF90CF90089573
:102A2400CF92DF92EF926B01E82EA82FCB01FC012D
:102A34002491A7FD2081222319F00196A11DF7CF2F
:0C2A44008C199D09EF90DF90CF90089551
:102A5000A0E0B0E0EEE2F5E10C9474148E01025FA8
:102A60001F4F2B853C854D8569857A858F8198859B
:0A2A70000E946E10E4E00C94901434
:102A7A0097FB072E16F4009407D077FD09D00E9421
:102A8A00511507FC05D03EF4909581959F4F089506
:082A9A00709561957F4F0895CE
:102AA200AA1BBB1B51E107C0AA1FBB1FA617B70772
:102AB20010F0A61BB70B881F991F5A95A9F780958E
:082AC2009095BC01CD010895BF
:102ACA000E9433160E94F1110E94E0150E948B0C9D
:102ADA002FEF84E39CE0215080409040E1F700C052
:042AEA000000F4CF25
:102AEE0083B984E886BF06B607FEFDCF81B1887F25
:102AFE00883221F0803321F481E0089580E008953A
:042B0E0082E00895C4
:102B1200092E0394000C11F4882352F0BB0F40F4E9
:102B2200BF2B11F460FF04C06F5F7F4F8F4F9F4F29
:022B3200089504
:102B34006095709580959095309540955095219528
:102B44003F4F4F4F5F4F6F4F7F4F8F4F9F4F0895B2
:102B54009A01462FDC01F901549147FD50815D93A0
:0C2B64002F5F3F4F4F4F5111F6CF0895E7
:102B7000689401C0E8948F929F92CF93DF930E9454
:0C2B8000C010DF91CF919F908F900895BE
:102B8C000E943613209166003091670040916800D6
:0A2B9C00509169000E948C16089504
:102BA600992777FD05C005900D920197E1F70895E5
:0A2BB60001900D920197E1F70895D8
:102BC0008AE10E94491489E00E9477158DE10E94F4
:082BD00077150E946E160895AE
:102BD8000024A7FD00942A1730054005500560051C
:082BE8007005800590050895B9
:102BF0000024A7FD00942A0F301D401D501D601DAC
:082C0000701D801D901D089558
:102C0800EC010E949F160E949E16CE010E94A016FB
:062C1800CE010E949C1693
:102C1E0060936600709367008093680090936900DC
:022C2E00089507
:102C300060936200709363008093640090936500DA
:022C40000895F5
:102C4200FC01480F591FE417F50711F06193FBCF00
:022C52000895E3
:102C54009C01215631092A31310510F48F759927C9
:022C64000895D1
:102C660010BC8FEC89B988E18AB986E880BD0895E1
:102C760090958095709561957F4F8F4F9F4F0895E2
:102C86009C01215431092A31310508F480620895E6
:0E2C96005058BB27AA270E944A0F0C9489159C
:0E2CA4000E94DA126894B1110C94681608951B
:0E2CB20000240A94161617061806090608953F
:0E2CC00000240A941216130614060506089541
:0E2CCE00E894BB2766277727CB0197F9089576
:0C2CDC0084E986BF06B604FCFDCF089515
:0C2CE80097F99F6780E870E060E00895B5
:0A2CF4000E94861308F481E00895A1
:0A2CFE000E94861308F48FEF08957A
:082D080011B880E280B90895C2
:082D10005D9BFECF8CB9089514
:082D18000E949B0D0C9489152B
:082D20000E94760E0C94891547
:062D28009FEF80EC08950E
:062D2E0080E090E0089532
:042D34000C940000FB
:042D38000E945E0097
:022D3C000895F8
:022D3E000895F6
:022D40000895F4
:042D420000006343E7
:042D46002CBD7F0021
:00000001FF
