:100000000C942D000C9403020C9403020C94030234
:100010000C9403020C9403020C9403020C9403024C
:100020000C9403020C9403020C9403020C9403023C
:100030000C9403020C9403020C9403020C9403022C
:100040000C9403020C9403020C9403020C9403021C
:100050000C9403020060007C800011241FBECFE5D9
:10006000D8E0DEBFCDBFE4E5F0E040E017C0B591D9
:10007000A59135912591059107FD0CC0959185912C
:10008000EF01F92FE82F05900D92A217B307D9F7CA
:10009000FE0104C01D92A217B307E1F7E935F4078A
:0E00A00031F70E94E4010C94CF01F894FFCFD9
:1000AE00CF93DF930E94DA010E94EB01C82FD0E0BC
:1000BE00DC2FCC270E94EB01BE01682B072E000C13
:1000CE00880B990B0E944B0160937400709375001E
:1000DE0080937600909377000E94EB01C82FD0E0BA
:1000EE00DC2FCC270E94EB01BE01682B072E000CE3
:1000FE00880B990B0E944B0160936C0070936D00FE
:10010E0080936E0090936F000E94EB01C82FD0E099
:10011E00DC2FCC270E94EB01BE01682B072E000CB2
:10012E00880B990B0E944B016093600070936100E5
:10013E0080936200909363000E94EB01C82FD0E081
:10014E00DC2FCC270E94EB01BE01682B072E000C82
:10015E00880B990B0E944B016093680070936900A5
:10016E0080936A0090936B000E94EB01C82FD0E041
:10017E00DC2FCC270E94EB01BE01682B072E000C52
:10018E00880B990B0E944B0160936400709365007D
:10019E0080936600909367000E94EB01C82FD0E019
:1001AE00DC2FCC270E94EB01BE01682B072E000C22
:1001BE00880B990B0E944B01609378007093790025
:1001CE0080937A0090937B000E94EB01C82FD0E0C1
:1001DE00DC2FCC270E94F201BE01682B072E000CEB
:1001EE00880B990B0E944B01609370007093710005
:1001FE0080937200909373000E94F901DF91CF916A
:02020E00089551
:100210002FE789EA93E0215080409040E1F700C049
:10022000000080ED0E94A30189E10E94BD0187E0EA
:100230000E94BD010E94F90180ED0E94A3018BE69E
:100240000E94BD0181E00E94BD010E94F90180ED84
:100250000E94A3018AE10E94BD0180E00E94BD01CD
:100260000E94F90180ED0E94A3018BE10E94BD0173
:1002700088E10E94BD010E94F90180ED0E94A30166
:1002800088E30E94BD0181E00E94BD010E94F90146
:020290000895CF
:10029200E89409C097FB3EF490958095709561951E
:1002A2007F4F8F4F9F4F9923A9F0F92F96E9BB27D4
:1002B2009395F695879577956795B795F111F8CF50
:1002C200FAF4BB0F11F460FF1BC06F5F7F4F8F4FBB
:1002D2009F4F16C0882311F096E911C0772321F0B1
:1002E2009EE8872F762F05C0662371F096E8862F49
:1002F20070E060E02AF09A95660F771F881FDAF7A0
:0A030200880F9695879597F90895E6
:10030C0094EA96BF06B607FEFDCF91B1987F903167
:10031C0071F483B984E886BF06B607FEFDCF81B1C0
:10032C00887F803431F0803231F482E0089580E0AF
:0A033C00089581E0089583E008951C
:10034600CF93C82F84EA86BF06B607FEFDCF81B1DC
:10035600887F8830B9F7C3B984E886BF06B607FE3A
:10036600FDCF81B1887F883119F00E94F901EACF6B
:04037600CF91089586
:10037A0083B984E886BF06B607FEFDCF81B1887FC0
:10038A00883221F0803321F481E0089580E00895D5
:04039A0082E0089560
:10039E00EC010E9408020E940702CE010E9409028F
:0603AE00CE010E940502D1
:1003B40080ED0E94A3018BE30E94BD0181ED0E94A8
:0403C4008601089511
:0E03C8000E94FF010E9408010E945700FDCF15
:0E03D60084EC86BF06B607FEFDCF83B1089506
:0E03E40084E886BF06B607FEFDCF83B10895FC
:0C03F20084E986BF06B604FCFDCF089528
:0803FE0011B880E280B90895F6
:040406000C94000052
:04040A000E945500F7
:02040E0008954F
:0204100008954D
:0204120008954B
:00000001FF
