:100000000C942A000C94CF000C94CF000C94CF00D9
:100010000C94CF000C94CF000C94CF000C94CF0024
:100020000C94CF000C94CF000C94CF000C94CF0014
:100030000C94CF000C94CF000C94CF000C94CF0004
:100040000C94CF000C94CF000C94CF000C94CF00F4
:100050000C94CF0011241FBECFE5D8E0DEBFCDBF8A
:0C0060000E9436000C94AE00F894FFCF14
:10006C000E94B90081E60E94CB008FE19EE40197CB
:10007C00F1F700C000000E94C7008FE19EE40197D9
:10008C00F1F700C0000082E60E94CB008FE19EE4F5
:10009C000197F1F700C000000E9461008FE19EE41F
:1000AC000197F1F700C0000083E60E94CB0084E6C4
:0600BC000E94CB00FFCF03
:1000C2008CE30E947F0080E00E949C0081E30E94FA
:1000D200CB0080E70E949C0082E30E94CB0080EA72
:1000E2000E949C0083E30E94CB0080E00E949C005F
:0C00F20084E30E94CB000E94C10008952E
:1000FE0094EA96BF06B607FEFDCF91B1987F983071
:10010E0071F483B984E886BF06B607FEFDCF81B1D0
:10011E00887F883131F0803231F482E0089580E0BA
:0A012E00089581E0089583E008952C
:1001380083B984E886BF06B607FEFDCF81B1887F04
:10014800883221F0803321F481E0089580E0089519
:0401580082E00895A4
:10015C00EC010E94D4000E94D300CE010E94D50075
:06016C00CE010E94D1004B
:1001720010BC8FEC89B988E18AB986E880BD089500
:0C01820084E986BF06B604FCFDCF08959A
:08018E0011B880E280B9089568
:080196005D9BFECF8CB90895BA
:04019E000C940000BD
:0401A2000E94340083
:0201A6000895BA
:0201A8000895B8
:0201AA000895B6
:00000001FF
