:100000000C942D000C9446130C9446130C94461338
:100010000C9446130C9446130C9446130C944613FC
:100020000C9446130C9446130C9446130C944613EC
:100030000C9446130C9446130C9446130C944613DC
:100040000C9446130C9446130C9446130C944613CC
:100050000C9446130060009A800011241FBECFE567
:10006000D8E0DEBFCDBFE4E5F0E040E017C0B591D9
:10007000A59135912591059107FD0CC0959185912C
:10008000EF01F92FE82F05900D92A217B307D9F7CA
:10009000FE0104C01D92A217B307E1F7E935F4078A
:0E00A00031F70E94F6070C94B512F894FFCFCA
:1000AE005861203D20005961203D20005A61203DBD
:1000BE0020005867203D20005967203D20005A67D8
:1000CE00203D200074203D20000A0D000A0A0A0D72
:0100DE000021
:1000DF0068076C094C836A9074A07AC000806888A6
:0600EF0000846C82008118
:1000F500494E4600696E66004E414E006E616E00C7
:06010500286E696C290060
:05010B00252E33660003
:10011000A3EAB0E0EEE8F0E00C946A114C0159015A
:10012000C756DF4F488359836A83C959D040212C71
:10013000312C6E012BE8C20ED11C85E2782E2601EF
:1001400030E8632ECE018D569F4FC456DF4F998302
:100150008883CC59D0409C0140E8CF55DF4F28839D
:1001600039834A83C15AD040C756DF4F4881C959A5
:10017000D040C656DF4F5881CA59D040C556DF4FD0
:100180006881CB59D040FA01849167FD8081882332
:1001900009F4C9C3CF57DF4F19821882C158D04024
:1001A0008FEF9FEFCD57DF4F99838883C358D0409F
:1001B000CB57DF4F19821882C558D040A1E0B0E07C
:1001C000AC0FBD1FC957DF4FB983A883C758D040B4
:1001D000E0E8F0E0C757DF4FF983E883C958D04023
:1001E000CA01A62FE12CF12CFC012491A7FD20814E
:1001F00021111BC0E114F10401F19701C4010E9417
:100200006610C756DF4F88819981AA81C959D040AD
:100210008E0D9F1DA11DF7FCAA95C756DF4F888341
:100220009983AA83C959D04008C00196A11D2532DF
:1002300009F3FFEFEF1AFF0AD7CFC756DF4F8881C8
:100240009981AA81C959D040FC012491A7FD208140
:10025000253209F056C39C014A2F2F5F3F4F4F4F65
:10026000C256DF4F288339834A83CE59D040C756C0
:10027000DF4F288339834A83C959D040C756DF4F9F
:1002800088819981AA81C959D040FC012491A7FD98
:1002900020812B3241F4CF57DF4F28813981C1585B
:1002A000D04024600BC02C32CCF02D3259F5CF5702
:1002B000DF4F28813981C158D0402160CF57DF4FAF
:1002C00039832883C158D0400196A11DC756DF4FFE
:1002D00088839983AA83C959D040D0CF203241F472
:1002E000CF57DF4F28813981C158D0402860E6CFF1
:1002F000233291F4CF57DF4F28813981C158D04044
:100300002061DCCF203341F4CF57DF4F2881398182
:10031000C158D0402260D2CF2A3299F50196A11D52
:10032000C756DF4F88839983AA83C959D040D50126
:10033000ED91FC911197CF0102968D939C93808152
:100340009181CB57DF4F99838883C558D04097FF61
:100350003EC0CF57DF4F28813981C158D040B1E02E
:100360002B27CF57DF4F39832883C158D040919531
:1003700081959109CB57DF4F99838883C558D04029
:1003800026C0BC018A2F0E94690FCB57DF4F99838B
:100390008883C558D040C756DF4F288139814A81AC
:1003A000C959D040F901849147FD8081082E000C85
:1003B000990BC0970A9758F42F5F3F4F4F4FC7567E
:1003C000DF4F288339834A83C959D040E4CFCF57C0
:1003D000DF4F88819981C158D04080FF07C08D7F51
:1003E000CF57DF4F99838883C158D040C756DF4F1E
:1003F00088819981AA81C959D040FC012491A7FD27
:1004000020812E3209F058C0CD57DF4F1982188253
:10041000C358D0409C014A2F2F5F3F4F4F4FC756C4
:10042000DF4F288339834A83C959D040F901549159
:1004300047FD50815A32D1F40296A11DC756DF4FB5
:1004400088839983AA83C959D040D501ED91FC9145
:100450001197CF0102968D939C9380819181CD5706
:10046000DF4F99838883C358D04026C0842FB901B9
:100470000E94690FCD57DF4F99838883C358D040BE
:10048000C756DF4F288139814A81C959D040F901C7
:10049000849147FD8081082E000C990BC0970A9724
:1004A00058F42F5F3F4F4F4FC756DF4F2883398394
:1004B0004A83C959D040E4CFCE0187569F4F0E944E
:1004C000D10E182FC756DF4F2881C959D040C656C4
:1004D000DF4F8881CA59D040C556DF4F9881CB592C
:1004E000D040E22FF82F849197FD8081082E000CD8
:1004F000990B0E94DB128936910509F45AC0B4F4B5
:100500008336910509F466C144F48532910509F4F6
:10051000A1C18136910529F1B3C18436910509F451
:1005200048C0883691050CF42DC1AAC180379105C9
:1005300009F4CBC04CF48E36910509F419C18F36FD
:10054000910509F47CC09CC18537910509F454C01C
:100550008837910509F496C08337910509F090C159
:1005600058C1612F70E0A501C6010E940F11892BAF
:1005700009F4B7C1C756DF4F88819981AA81C9594B
:10058000D0409C014A2F2F5F3F4F4F4FC756DF4F40
:10059000288339834A83C959D040FC012491A7FD9F
:1005A0002081A601BE016F577F4FC4010E944013F6
:1005B00095C1612F70E0950141E050E0C6010E94B5
:1005C0000809892B09F48DC1C756DF4F88819981AD
:1005D000AA81C959D0400196A11DC756DF4F888313
:1005E0009983AA83C959D040A601BE016F577F4F96
:1005F000C4010E943D1372C1612F70E0950140E07B
:1006000050E0C6010E940809892B09F46AC1C75647
:10061000DF4F88819981AA81C959D0400196A11DD7
:10062000C756DF4F88839983AA83C959D040A60152
:10063000BE016F577F4FC4010E943D134FC1612F10
:1006400070E0950140E050E0C6010E940809892B46
:1006500009F447C1C756DF4F88819981AA81C959DA
:10066000D0400196A11DC756DF4F88839983AA8386
:10067000C959D040A601BE016F577F4FC4010E94E7
:100680003D132CC1612F70E0950140E050E0C601A0
:100690000E940809892B09F424C1C756DF4F8881BD
:1006A0009981AA81C959D0409C014A2F2F5F3F4FA1
:1006B0004F4FC756DF4F288339834A83C959D040EB
:1006C000FC012491A7FD20814BC0950140E050E042
:1006D00060EF70E0C6010E940809892B09F401C18E
:1006E000C756DF4F88819981AA81C959D0400196A8
:1006F000A11DC756DF4F88839983AA83C959D0406B
:1007000086E025E031E040E0F901DE01AD56BF4F63
:10071000742F0E948412D6012C9111963C9111974E
:1007200012964C91129713965C91139714966C91B4
:10073000149715967C91159716968C911697179687
:100740009C91A0E00E949D1251F400E010E0CF5572
:10075000DF4F288139814A81C15AD040B9C028E78A
:10076000A601BE016F577F4FC4010E944013B6C05F
:10077000612F70E09501A1014E0D5F1DC6010E9421
:10078000420DAFC0612F70E0A501C6010E940F119C
:10079000892B09F4A6C0C756DF4F88819981AA81A9
:1007A000C959D0409C014A2F2F5F3F4F4F4FC7562A
:1007B000DF4F288339834A83C959D040FC012491F3
:1007C000A7FD2081A601BE016F577F4FC4010E9483
:1007D000990484C0103809F084C0C756DF4F88815F
:1007E0009981AA81C959D0400196A11DC756DF4FF2
:1007F00088839983AA83C959D040D501ED91FC9192
:100800001197CF0102968D939C938081F60180838E
:100810005BC0103809F065C0C756DF4F88819981E9
:10082000AA81C959D0400196A11DC756DF4F8883C0
:100830009983AA83C959D040D501ED91FC911197B4
:10084000CF0103968D939C9320813181428100E0FA
:1008500010E03EC0103809F044C0C756DF4F888111
:100860009981AA81C959D0400196A11DC756DF4F71
:1008700088839983AA83C959D040F601708224C025
:10088000D6017C92C256DF4F288139814A81CE59E8
:10089000D040C756DF4F288339834A83C959D04097
:1008A000CF57DF4F19821882C158D040CB57DF4F46
:1008B00019821882C558D0408FEF9FEFCD57DF4F78
:1008C00099838883C358D04001E010E0462D9201FF
:1008D000BE016F577F4FC4010E9443138E0D9F1DB1
:1008E00011C0C756DF4F88819981AA81C959D0406C
:1008F0000196A11DC756DF4F88839983AA83C959E2
:10090000D040C7017101E80EF91EE214F3044CF463
:100910008FE490E090938D0080938C008FEF9FEF99
:1009200003C0170121CCC101CD55DF4FE2E10C948A
:0209300086112E
:10093200A6E2B0E0EFE9F4E00C946A119F8F8E8F8B
:10094200798F688F122FFB010190F081E02DFA87D9
:10095200E987FB01C280D380248135813C8B2B8BBC
:100962008085918599A388A30680F781E02DFA837B
:10097200E983FA0180809180A280B38020E030E098
:10098200A901C501B4010E94201387FF06C0B7FA6E
:10099200B094B7F8B0948DE204C0F985F2FF0CC3AD
:1009A2008BE2E981FA8180832B893C8921503109CC
:1009B20038872F8341E050E05A8B498B06C08B89E0
:1009C2009C8998878F831A8A198AD501C401BF77B7
:1009D2000097E0E8AE07EFE7BE07D9F4212F110F29
:1009E200330B2154310989819A8149895A89840FAB
:1009F200951F2A31310520F445EF50E060E003C035
:100A020049EF50E060E00E94761269EF70E080E00A
:100A12001EC00197A048BF4730F1212F110F330BA1
:100A22002154310989819A8149895A89840F951FF4
:100A32002A31310520F44DEF50E060E003C041E07F
:100A420051E060E00E94761261E071E080E00E9475
:100A52000212E981FA81AF0160E8E984FA840B8924
:100A62001C899C01A1C220E030E0A901C501B401AA
:100A72000E9420131B821C82882309F467C0F0E8BD
:100A8200FD832FE32E83212C312C20E030E040E245
:100A920051E46B817C818D819E810E943613F62EFA
:100AA200072F8D879B87A50194010E942513181695
:100AB20054F03FEF231A330AFB820C834D854D839A
:100AC2005B855E83E2CF1C861B862B813C814D8138
:100AD2005E81C501B4010E94201387FF3DC084EDF1
:100AE20028168EEF380604F5EB85FC85EF2BE1F432
:100AF20020E030E040E85AE5C501B4010E94361317
:100B02004B015C0120E030E040E85AE56B817C81DA
:100B12008D819E810E9436136B837C838D839E839D
:100B220021E030E03C872B8720E030E040E251E4D6
:100B32006B817C818D819E810E9432136B837C83C9
:100B42008D839E8331E0231A3108BFCF40E84D8365
:100B52005FE35E83212C312C812F110F990B9BA314
:100B62008AA30E94DB128B8FD7FC03C0DEA2CDA228
:100B720004C0E6E0F0E0FEA3EDA3FB8DF73641F4FE
:100B8200CD2809F01EC221E030E03EA32DA319C2F8
:100B92008B8D8D8B04C037FE25C296E69D8BEDA111
:100BA200FEA13196FEA3EDA3FD89F63699F437FE38
:100BB20008C01B821C8220E82D833FE33E83212C48
:100BC200312C4B8D473631F08DA19EA1820D931DA4
:100BD2009EA38DA39B819B87EC81ED87FD81FE8B7C
:100BE2002E812A8F750164011D8E1C8E8C8D9D8D28
:100BF200EDA1FEA18E179F07C1F12B853D854E8980
:100C02005A8DC701B6010E9432130E94B30B2B0109
:100C12003C010E940D136CA38701760117FB10950E
:100C220017F910952B853D854E895A8DC301B20166
:100C32000E94150B6B017C01F7FAF094F7F8F0941F
:100C420020E030E040E251E46B857D858E899A8D0B
:100C52000E9432136B877D878E8B9A8F4C8D5D8DB0
:100C62004F5F5F4F5D8F4C8FC1CF20E030E040EA95
:100C720050E46B857D858E899A8D0E9436132B01F7
:100C82003C019B01AC01C701B6010E94201387FD04
:100C92000BC0A3019201C701B6010E94201381116A
:100CA20006C0FCA1F0FD03C0412C512C3201A3016E
:100CB2009201C501B4010E94F2124B015C012D891F
:100CC200253611F0310102C0612C712C23014DA196
:100CD2005EA1441A550AC988DA8800E010E01C8631
:100CE2001B8689859A85807199279F8B8E8B6414C8
:100CF200750431F48B859C85892B09F49AC0A6C0B2
:100D0200DD8ECC8EE88DF98D808591850597C8168C
:100D1200D90680F72B813C814D815E81C501B401EA
:100D22000E9432130E94B30B6D877E878F87988B48
:100D32000E940D13CB01EE89FF89EF2B69F4892BF9
:100D420059F4FB8DF73641F477FE06C098012F5F08
:100D52003F4F3D8F2C8F43C04B855C85452BB1F4B3
:100D620077FE14C05FEFC51AD50AE981FA818C8D2E
:100D72009D8DE80FF91F9EE29083EF81F8853197F0
:100D8200F887EF8321E030E03C872B87E981FA8105
:100D9200EC0DFD1D1D8F0C8F8C8D9D8D892B49F0C7
:100DA20030E331934C8D5D8D415051095D8F4C8FF5
:100DB200F3CFC8018C0D9D1D2F813885201B310B6F
:100DC2006C01EFEFCE1ADE0AE981FA81E80FF91F12
:100DD200605D6083A9014150510958874F838501A5
:100DE200740117FB109517F910952B813C814D81E9
:100DF2005E816D857E858F8598890E94150B4B01DA
:100E02005C01B7FAB094B7F8B09420E030E040E269
:100E120051E46B817C818D819E810E9432136B83B0
:100E22007C838D839E8351E0651A71080C8D1D8D24
:100E32005ECFF985F4FF0AC0E981FA81EC0DFD1D50
:100E42008EE2808396012F5F3F4F690149815A816B
:100E52004C0D5D1D5C874B87FA011082FD89F536CA
:100E620009F061C0E981FA8128A139A1E20FF31FDB
:100E72003197108237FE06C031942194310801E087
:100E820010E002C000E010E0E8A1F9A13197498129
:100E92005A81E40FF51F22E030E08AE0E82EF12CBF
:100EA200CF0149815A81841B950B2114310479F0B9
:100EB200C101B7010E941812805D82931B0121506B
:100EC20031098F819885019798878F83E9CF121610
:100ED200130674F3FC013197E40FF51F012B11F493
:100EE2002BE201C02DE220830297E981FA81E80F0B
:100EF200F91F2AA13BA1215431092A31310510F0F1
:100F020025E601C025E420832F813885225031094E
:100F120038872F83C816D90634F4AF0160E88B8571
:100F22009C850E94761249815A813A0180E8882E76
:100F3200998591FF2EC090FD2CC0EF81F8851E1679
:100F42001F063CF5882DB3010E94021229813A81C5
:100F5200820F931F9C0149815A81241B350BE98919
:100F6200FA892E173F074CF0FC012081EF81F885AA
:100F7200E80FF91F20830197EDCF4F81588560E379
:100F820070E089819A818E0F9F1F0E94CA121C8A6B
:100F92001B8A882DB3010E940212E984FA840B890C
:100FA2001C899C01682DA3018E8D9F8D0E944C0C83
:100FB200A696E2E10C948611598553FF00CD80E29A
:100FC200F0CC2CEF22162FEF32064CF04DA15EA191
:100FD200241635060CF4DFCD55E65D8BFBCD35E6E8
:0A0FE2003D8BF8CD46E64D8BF5CDB2
:100FEC00CF93DF93CDB7DEB7C65CD1090FB6F894BB
:100FFC00DEBF0FBECDBF0E94D3120E94B10F0E9464
:10100C00720A26E030E04EEA50E060E0CE014F96E6
:10101C000E94BB1126E030E044EB50E060E0CE01D2
:10102C0089960E94BB1126E030E04AEB50E060E06C
:10103C00CE01C3960E94BB1126E030E040EC50E09C
:10104C0060E0CE01CD960E94BB1126E030E046EC6C
:10105C0050E060E0CE01895B9F4F0E94BB1126E0FF
:10106C0030E04CEC50E060E0CE018F5A9F4F0E9474
:10107C00BB1125E030E042ED50E060E0CE01855A36
:10108C009F4F0E94BB1180917C0090917D00A0919C
:10109C007E00B0917F00C555DF4F88839983AA836A
:1010AC00BB83CB5AD0408091800090918100A0915D
:1010BC008200B0918300C155DF4F88839983AA8346
:1010CC00BB83CF5AD0408091840090918500A09131
:1010DC008600B0918700CD54DF4F88839983AA8313
:1010EC00BB83C35BD0408091960090919700A091F8
:1010FC009800B0919900C954DF4F88839983AA83D3
:10110C00BB83C75BD0408091920090919300A091DB
:10111C009400B0919500C554DF4F88839983AA83BE
:10112C00BB83CB5BD04080918E0090918F00A091BF
:10113C009000B0919100C154DF4F88839983AA83AA
:10114C00BB83CF5BD0408091640090916500A091EF
:10115C006600B0916700CD53DF4F88839983AA83D3
:10116C00BB83C35CD04023E030E047ED50E060E04F
:10117C00CE018B599F4F0E94BB1125E030E04AED08
:10118C0050E060E0CE0181599F4F0E94BB1100E0FE
:10119C0010E02FC09801220F331FC801880F991F30
:1011AC00880F991F880F991F820F931F4E9621E06D
:1011BC0030E02C0F3D1F820F931F0E94EC11F801A1
:1011CC00EE0FFF1FEE0FFF1F81E090E08C0F9D1FB5
:1011DC00E80FF91FE655FF4F608171818281938181
:1011EC000E943110CE018B599F4F0E94EC110F5F62
:1011FC001F4F0730110574F2CE0181599F4F0E9489
:04120C00EC11FDCE16
:101210000F931F93CF93DF93FC01D90168387105B9
:1012200031F194F461387105B1F12CF46038710535
:1012300009F478C09FC06238710509F459C0643858
:10124000710509F46FC096C0603A710509F448C091
:101250002CF46039710509F44BC08CC0603C7105F9
:1012600009F476C0603F710509F472C083C0CD9166
:10127000DC911197CE0102968D939C93452B39F00A
:101280009881892F880F880B908381835BC0888128
:101290008083118268C0CD91DC911197CE010496B4
:1012A0008D939C93452B99F088819981AA81BB816C
:1012B000AC01BD01770F440B542FBA018083918399
:1012C000A283B383448345834683478328C0088130
:1012D00019812A813B81008311832283338345C096
:1012E000CD91DC911197CE0102968D939C9323C0F2
:1012F000CD91DC911197CE0108968D939C937881C6
:1013000069815A814B813C812D819E818F817083BF
:10131000618352834383348325839683878381E06B
:1013200090E02AC0CD91DC911197CE0102968D9369
:101330009C93452BA1F099812881892F880F880BD8
:101340002083918382838383848385838683E6CF0E
:10135000CD91DC911197CE0102968D939C930881DB
:1013600019810083118312821382148215821682DE
:101370001782D5CF80E090E0DF91CF911F910F9140
:021380000895CE
:10138200CF93DF930E94C0120E94E312C82FD0E0D5
:10139200DC2FCC270E94E312BE01682B072E000C23
:1013A200880B990B0E94F60F609378007093790076
:1013B20080937A0090937B000E94E312C82FD0E0C2
:1013C200DC2FCC270E94E312BE01682B072E000CF3
:1013D200880B990B0E94F60F609370007093710056
:1013E20080937200909373000E94E312C82FD0E0A2
:1013F200DC2FCC270E94E312BE01682B072E000CC3
:10140200880B990B0E94F60F609360007093610045
:1014120080936200909363000E94E312C82FD0E091
:10142200DC2FCC270E94E312BE01682B072E000C92
:10143200880B990B0E94F60F60936C0070936D00FD
:1014420080936E0090936F000E94E312C82FD0E049
:10145200DC2FCC270E94E312BE01682B072E000C62
:10146200880B990B0E94F60F6093680070936900D5
:1014720080936A0090936B000E94E312C82FD0E021
:10148200DC2FCC270E94E312BE01682B072E000C32
:10149200880B990B0E94F60F609388007093890065
:1014A20080938A0090938B000E94E312C82FD0E0B1
:1014B200DC2FCC270E94EA12BE01682B072E000CFB
:1014C200880B990B0E94F60F60937400709375005D
:1014D20080937600909377000E941413DF91CF914E
:0214E20008956B
:1014E4000E94C109609178007091790080917A001E
:1014F40090917B0020E030E040E858E30E943613EE
:1015040060937C0070937D0080937E0090937F00B5
:1015140060917000709171008091720090917300DD
:1015240020E030E040E858E30E94361360938000E6
:101534007093810080938200909383006091600097
:1015440070916100809162009091630020E030E02E
:1015540040E858E30E94361360938400709385003A
:101564008093860090938700609168007091690071
:1015740080916A0090916B0023E333E343E851E4E4
:101584000E943213609396007093970080939800A2
:1015940090939900609188007091890080918A00ED
:1015A40090918B0023E333E343E851E40E94321328
:1015B40060939200709393008093940090939500AD
:1015C400609174007091750080917600909177001D
:1015D40023E333E343E851E40E94321360938E0023
:1015E40070938F00809390009093910020E030E0FE
:1015F4004AEA53E460916C0070916D0080916E0032
:1016040090916F000E94321328EB3EE142E152E4D4
:101614000E94F212609364007093650080936600E8
:0616240090936700089599
:10162A00A5E1B0E0EBE1FBE00C946A114701580137
:10163A000E9436132B013C01A80197010E94F21265
:10164A00162FC72ED82EF92E862F9C2DAD2DBF2DE5
:10165A0089839A83AB83BC83AA81FB81EC81ED8069
:10166A003E802F8008850D8B5E2F5F71212F3A2FC8
:10167A004F2F60E070E080E090E0211531054105D0
:10168A0000E15007610571058105910509F05EC009
:10169A005E2F6E2D732D822D9D8904E30E943111D8
:1016AA002D873E874F87588B698B7A8B8B8B9C8BC8
:1016BA008D859E8597708F3F974009F447C0A30197
:1016CA009201612F7C2D8D2D9F2D0E94F1129B017D
:1016DA00AC01C501B4010E9420138823B9F14986DF
:1016EA005A866B867C8629853A854B855C85C50139
:1016FA00B4010E94F212B62E872E982EA92E262FFA
:10170A00372F482F592F612F7C2D8D2D9F2D0E9409
:10171A002013811118C02B2D8B2D982DA92DBA2D90
:10172A0089839A83AB83BC833A814B815C816E2D1A
:10173A00732D822D9D89A1E00E94A912122FC32E1A
:10174A00D42EF52E03C01B2D6401FA2C612F7C2D9B
:0C175A008D2D9F2D6596E2E10C94861108
:101766004F925F926F927F928F929F92AF92BF92AB
:10177600CF92DF92EF92FF92CF93DF93CDB7DEB792
:1017860028970FB6F894DEBF0FBECDBF6B017C0164
:10179600DC01CB0147E1B695A795979587954A95C4
:1017A600D1F799278F579109873191059CF597FDB8
:1017B60036C088248A94982C3FE7A32EB12C04C007
:1017C600B594A794979487948A95D2F7D501C401C6
:1017D6008C219D21AE21BF21892B8A2B8B2BD1F009
:1017E60020E030E040E85BE7C701B6010E94F21254
:1017F6006D837E838F839887F7FE04C0C80CD91C3F
:10180600EA1CFB1C80949094A094B094C820D92024
:10181600EA20FB205C2D4D2D3E2D2F2D21C020E0F2
:1018260030E040E85BE7C701B6010E94F212698327
:101836007A838B839C83F7FE0FC0D701C601880F7E
:10184600991FAA1FBB1F892B8A2B8B2B19F350E0DC
:1018560040E030E82FEB04C050E040E030E020E00C
:10186600652F742F832F922F28960FB6F894DEBF1C
:101876000FBECDBFDF91CF91FF90EF90DF90CF905D
:10188600BF90AF909F908F907F906F905F904F909A
:021896000895B3
:101898002F923F924F926F927F928F92AF92BF9208
:1018A800CF92DF92EF92FF920F931F93CF93DF9324
:1018B800CDB7DEB766970FB6F894DEBF0FBECDBFC3
:1018C8005C013A01862E6901C701817099279C8BBA
:1018D8008B8BE0FC1DC020173107D4F47801EC187D
:1018E800FD08FE8AED8AA70191E1E916F10410F0DE
:1018F80040E150E060E270E0CE0101969A8B898B5E
:101908000E94CA1289899A891C0120E8422E0BC0BC
:101918009601682DA301C5010E946610C016D10664
:10192800ECF2C60125C090E1E916F10458F020E177
:1019380030E0642DA101C5010E94661080E1E81A1B
:10194800F108F1CF2D893E892F70332789899A892B
:10195800AC0160E8C5010E9466108B899C89892BBF
:1019680031F49601682DA301C5010E946610C801D3
:1019780066960FB6F894DEBF0FBECDBFDF91CF914C
:101988001F910F91FF90EF90DF90CF90BF90AF9095
:0E1998008F907F906F904F903F902F9008950A
:1019A60010C00E94FF1258F00E94F81240F029F46D
:1019B6005F3F29F00C941A1351110C9407130C94E1
:1019C6003A130E94ED1068F39923B1F3552391F36E
:1019D600951B550BBB27AA2762177307840738F098
:1019E6009F5F5F4F220F331F441FAA1FA9F335D0F5
:1019F6000E2E3AF0E0E832D091505040E695001CA9
:101A0600CAF72BD0FE2F29D0660F771F881FBB1F62
:101A1600261737074807AB07B0E809F0BB0B802D40
:101A2600BF01FF2793585F4F3AF09E3F510578F06C
:101A36000C941A130C9407135F3FE4F3983ED4F307
:101A4600869577956795B795F7959F5FC9F7880F40
:101A5600911D9695879597F90895E1E0660F771F92
:101A6600881FBB1F621773078407BA0720F0621B23
:0E1A7600730B840BBA0BEE1F88F7E0950895F2
:101A8400CF93DF93DC01F90164387105D9F164F473
:101A94006138710521F16238710509F440C060387C
:101AA400710509F054C02EC060397105C1F184F488
:101AB4006838710509F04BC0C081D181CE0102960E
:101AC40091838083E881F981ED93FC9340833CC04A
:101AD400603A7105B9F0603C7105A1F038C0C0816D
:101AE400D181CE01029691838083E881F981ED93BF
:101AF400FC93052E000C660B770B408351836283A5
:101B0400738322C0C081D181CE01029691838083E8
:101B1400E881F981ED93FC935183408315C0C08122
:101B2400D181CE01029691838083E881F981ED937E
:101B3400FC9351834083852F880F880B8283838392
:101B4400848385838683878381E090E002C080E07C
:081B540090E0DF91CF910895AC
:101B5C000FC00E94F81238F00E94FF1220F095235B
:101B6C0011F00C941A130C943A1311240C940713BF
:101B7C000E94ED1070F3959FC1F3950F50E0551F27
:101B8C00629FF001729FBB27F00DB11D639FAA27C6
:101B9C00F00DB11DAA1F649F6627B00DA11D661F15
:101BAC00829F2227B00DA11D621F739FB00DA11D36
:101BBC00621F839FA00D611D221F749F3327A00DF0
:101BCC00611D231F849F600D211D822F762F6A2F8C
:101BDC0011249F5750409AF0F1F088234AF0EE0FF1
:101BEC00FF1FBB1F661F771F881F91505040A9F71E
:101BFC009E3F510580F00C941A130C9407135F3F11
:101C0C00E4F3983ED4F3869577956795B795F79559
:101C1C00E7959F5FC1F7FE2B880F911D96958795D1
:041C2C0097F9089587
:101C300011C00E94F81238F00E94FF1220F039F40F
:101C40009F3F19F426F40C943A130EF4E095E7FB49
:101C50000C941A13E92F0E94ED1058F3BA1762077B
:101C600073078407950720F079F4A6F50C94061302
:101C70000EF4E0950B2EBA2FA02D0B01B9019001A7
:101C80000C01CA01A0011124FF27591B99F0593FEB
:101C900050F4503E68F11A16F040A22F232F342F33
:101CA0004427585FF3CF469537952795A795F04081
:101CB0005395C9F77EF41F16BA0B620B730B840B96
:101CC000BAF09150A1F0FF0FBB1F661F771F881F4E
:101CD000C2F70EC0BA0F621F731F841F48F48795A6
:101CE00077956795B795F7959E3F08F0B0CF939598
:0E1CF000880F08F09927EE0F979587950895B5
:101CFE006F927F928F92EF92FF920F931F93CF93DB
:101D0E00DF93CDB7DEB761970FB6F894DEBF0FBE87
:101D1E00CDBFFE01319651E1DF011D925A95E9F7D3
:101D2E00A2E0B1E0BA83A9839C838B8377FF09C0BD
:101D3E008FE490E090938D0080938C008FEF9FEF57
:101D4E0019C03901842E7C01615071097F836E8325
:101D5E009801682DA301CF010E94D41148855985A1
:101D6E002E813F814217530708F49A01F701E20FC3
:101D7E00F31F108261960FB6F894DEBF0FBECDBF73
:101D8E00DF91CF911F910F91FF90EF908F907F90E9
:041D9E006F900895A5
:101DA200CF92DF92EF92DC0190E0292F30E0220FF8
:101DB200331F6901032E000CEE086E2DA60141525D
:101DC2005F4F6F4F6A01E62EFA018491E7FC808132
:101DD20081110DC02F5F3F4F032E000C440B215287
:101DE2003F4F4F4FF901849147FD808124C0CD9030
:101DF200DD90EC901297F6014491E7FC4081841348
:101E020015C02F5F3F4F032E000C440B21523F4F52
:101E12004F4FF901949147FD90815FEFC51AD50AA2
:101E2200E50ACD92DD92EC92129701C09F5F9B3042
:0E1E320008F4BBCF892FEF90DF90CF9008957A
:101E40000F931F93CF93DF93DB012D913C9111975B
:101E500030FF25C017964D915C91189715962D91DE
:101E60003C9116974217530778F41296ED91FC9126
:101E70001397808312962D913C9113972F5F3F4FBC
:101E800013963C932E93129717962D913C91189789
:101E90002F5F3F4F18963C932E93179715C01D96B2
:101EA000ED91FC911E97309719F48FEF9FEF0CC0C6
:101EB0008B01EC010995892BC1F7F8018781908589
:101EC000019690878783CE01DF91CF911F910F916B
:021ED000089573
:101ED200CF939B01482FF901849147FD8081803285
:101EE200C9F1682F082E000C770B69507109653013
:101EF200710580F18B3249F5A0E0B0E02F5F3F4FD2
:101F02004F4F02C0A0E0B0E080E090E0CAE0F901EB
:101F1200649147FD6081062E000C770B60537109B6
:101F22006A30710560F4C89FF001C99FF00D112459
:101F32002F5F3F4F4F4FCF01861B970BE8CFAB2B45
:101F420069F491958195910909C08D32D9F6A1E084
:101F5200B0E0D4CF2F5F3F4F4F4FBDCFCF91089509
:101F62000E942A132FE789EA93E021508040904093
:101F7200E1F700C0000080ED0E94A11189E10E94FA
:101F8200531287E00E9453120E94141380ED0E94A4
:101F9200A1118BE60E94531281E00E9453120E940B
:101FA200141380ED0E94A1118AE10E94531280E075
:101FB2000E9453120E94141380ED0E94A1118BE122
:101FC2000E94531288E10E9453120E94141380ED62
:101FD2000E94A11188E30E94531281E00E945312D1
:061FE2000E941413089593
:101FE800E89409C097FB3EF49095809570956195AB
:101FF8007F4F8F4F9F4F9923A9F0F92F96E9BB2761
:102008009395F695879577956795B795F111F8CFDC
:10201800FAF4BB0F11F460FF1BC06F5F7F4F8F4F47
:102028009F4F16C0882311F096E911C0772321F03D
:102038009EE8872F762F05C0662371F096E8862FD5
:1020480070E060E02AF09A95660F771F881FDAF72C
:0A205800880F9695879597F9089573
:102062000F931F93CF93DF93CDB7DEB72A970FB6A7
:10207200F894DEBF0FBECDBF8E010F5F1F4F2AE067
:10208200F80111922A95E9F79F938F937F936F93AB
:102092008BE091E0A0E0AF939F938F931F930F93F8
:1020A2000E944012C8010E94EC110FB6F894DEBFE4
:1020B2000FBECDBF2A960FB6F894DEBF0FBECDBFBE
:0A20C200DF91CF911F910F91089557
:1020CC006F927F928F92CF92DF92EF920F931F932A
:1020DC00CF93DF938C016A01E62EE9013A01862E3B
:1020EC00620E731E811C37FD8A94C614D704E80453
:1020FC0079F0F6018491E7FC8081B801082E000C80
:10210C00990B0E94200F8FEFC81AD80AE80AEDCF5E
:10211C00CE01DF91CF911F910F91EF90DF90CF9077
:08212C008F907F906F900895E1
:102134000E94F51088F09F5798F0B92F9927B7514E
:10214400B0F0E1F0660F771F881F991F1AF0BA9557
:10215400C9F714C0B13091F00E940613B1E008959C
:102164000C940613672F782F8827B85F39F0B93F8E
:10217400CCF3869577956795B395D9F73EF490950A
:0E2184008095709561957F4F8F4F9F4F089506
:10219200990F0008550FAA0BE0E8FEEF1616170676
:1021A200E807F907C0F012161306E407F50798F0DE
:1021B200621B730B840B950B39F40A2661F0232BF7
:1021C200242B252B21F408950A2609F4A140A69573
:0821D2008FEF811D811D0895AE
:1021DA0057FD9058440F551F59F05F3F71F04795CE
:1021EA00880F97FB991F61F09F3F79F087950895B3
:1021FA00121613061406551FF2CF4695F1DF08C0D2
:10220A00161617061806991FF1CF869571056105EE
:04221A000894089587
:10221E00FA0160387105CCF0623871051CF0633834
:10222E00710599F4A081B1819D012C5F3F4F3183DF
:10223E0020834D915D916D917C91FC014083518382
:10224E006283738381E090E0089580E090E00895CA
:10225E0097FB10F8169400080F93083098F008506A
:10226E00232F342F452F562F672F782F892F902D00
:10227E00F4CF0594979587957795679557954795DC
:0C228E00379527950A95AAF70F9108953F
:10229A0094EA96BF06B607FEFDCF91B1987F9031BA
:1022AA0071F483B984E886BF06B607FEFDCF81B113
:1022BA00887F803431F0803231F482E0089580E002
:0A22CA00089581E0089583E008956F
:1022D4002F923F924F925F926F927F928F929F9232
:1022E400AF92BF92CF92DF92EF92FF920F931F9320
:1022F400CF93DF93CDB7DEB7CA1BDB0B0FB6F894D1
:08230400DEBF0FBECDBF09943E
:10230C002A88398848885F846E847D848C849B8479
:10231C00AA84B984C884DF80EE80FD800C811B8187
:10232C00AA81B981CE0FD11D0FB6F894DEBF0FBEB6
:06233C00CDBFED01089584
:10234200CF93C82F84EA86BF06B607FEFDCF81B1C0
:10235200887F8830B9F7C3B984E886BF06B607FE1E
:10236200FDCF81B1887F883119F00E941413EACF22
:04237200CF9108956A
:10237600CF92DF92EF926A01E62EDC01280F391F19
:10238600A217B30751F0F6014491E7FC40814D9343
:102396004FEFC41AD40AE40AF3CFEF90DF90CF9040
:0223A600089598
:1023A800A2E0B0E0EAEDF1E10C9478118C013A83F7
:1023B80029839E012F5F3F4F0E948800F8012081EA
:1023C80024FF02C08FEF9FEF2296E4E00C94941153
:1023D8000F931F93CF93DF938C01C0E0D0E003C02D
:1023E8000E942E132196F801EC0FFD1F80818111A8
:0C23F800F7CFDF91CF911F910F91089556
:10240400CF92DF92EF926B01E82EA82FCB01FC0153
:102414002491A7FD2081222319F00196A11DF7CF55
:0C2424008C199D09EF90DF90CF90089577
:1024300097FB072E16F4009407D077FD09D00E9471
:102440002C1207FC05D03EF4909581959F4F08957E
:08245000709561957F4F08951E
:10245800AA1BBB1B51E107C0AA1FBB1FA617B707C2
:1024680010F0A61BB70B881F991F5A95A9F78095DE
:082478009095BC01CD0108950F
:10248000A0E0B0E0E6E4F2E10C947A119E01265F50
:102490003F4F4F81588569858D819E810E949112A1
:0624A000E2E00C9496112D
:1024A60083B984E886BF06B607FEFDCF81B1887F73
:1024B600883221F0803321F481E0089580E0089588
:0424C60082E0089513
:1024CA00092E0394000C11F4882352F0BB0F40F438
:1024DA00BF2B11F460FF04C06F5F7F4F8F4F9F4F78
:0224EA00089553
:1024EC009A01462FDC01F901549147FD50815D930F
:0C24FC002F5F3F4F4F4F5111F6CF089556
:10250800992777FD05C005900D920197E1F7089589
:0A25180001900D920197E1F708957C
:102522000F931F9389019A01462F6FEF7FE70E9455
:082532007F0E1F910F91089527
:10253A000024A7FD00942A173005400550056005C0
:08254A0070058005900508955D
:102552000024A7FD00942A0F301D401D501D601D50
:08256200701D801D901D0895FD
:10256A00EC010E944B130E944A13CE010E944C13A5
:06257A00CE010E9448138F
:1025800080ED0E94A1118BE30E94531281ED0E9405
:042590004D1108954C
:10259400FC01480F591FE417F50711F06193FBCFB5
:0225A400089598
:1025A60010BC8FEC89B988E18AB986E880BD0895A8
:1025B6009C01215431092A31310508F480620895BD
:0E25C60084EC86BF06B607FEFDCF83B10895F4
:0E25D40084E886BF06B607FEFDCF83B10895EA
:0E25E2005058BB27AA270E94180E0C946512B1
:0E25F00000240A941616170618060906089508
:0E25FE0000240A94121613061406050608950A
:0E260C00E894BB2766277727CB0197F908953E
:0E261A000E949A106894B1110C940713089551
:0C26280084E986BF06B604FCFDCF0895CF
:0C26340097F99F6780E870E060E008956F
:0A2640000E94C91008F481E008951B
:0A264A000E94C91008F48FEF0895F4
:0826540011B880E280B908957D
:08265C005D9BFECF8CB90895CF
:082664000E94D30C0C946512D6
:08266C000E94AE0D0C946512F2
:062674009FEF80EC0895C9
:06267A0080E090E00895ED
:0626800080E090E00895E7
:0626860080E090E00895E1
:04268C000C940000AA
:042690000E9455004F
:022694000895A7
:022696000895A5
:022698000895A3
:00000001FF
