:100000000C942D000C94E2120C94E2120C94E21267
:100010000C94E2120C94E2120C94E2120C94E21290
:100020000C94E2120C94E2120C94E2120C94E21280
:100030000C94E2120C94E2120C94E2120C94E21270
:100040000C94E2120C94E2120C94E2120C94E21260
:100050000C94E2120060007E800011241FBECFE5E8
:10006000D8E0DEBFCDBFE4E5F0E040E017C0B591D9
:10007000A59135912591059107FD0CC0959185912C
:10008000EF01F92FE82F05900D92A217B307D9F7CA
:10009000FE0104C01D92A217B307E1F7E935F4078A
:0E00A00031F70E94F7070C945112F894FFCF2D
:1000AE005861203D2000252E336600202020202080
:1000BE00202020200A0D005961203D20005A612089
:0300CE003D2000D2
:1000D10068076C094C836A9074A07AC000806888B4
:0600E10000846C82008126
:1000E700696E636F72726563742073656C656374A0
:0400F7006F72000024
:1000FB00494E4600696E66004E414E006E616E00C1
:06010B00286E696C29005A
:10011200A3EAB0E0EFE8F0E00C9406114C015901BB
:10012200C756DF4F488359836A83C959D040212C6F
:10013200312C6E012BE8C20ED11C85E2782E2601ED
:1001420030E8632ECE018D569F4FC456DF4F998300
:100152008883CC59D0409C0140E8CF55DF4F28839B
:1001620039834A83C15AD040C756DF4F4881C959A3
:10017200D040C656DF4F5881CA59D040C556DF4FCE
:100182006881CB59D040FA01849167FD8081882330
:1001920009F4C9C3CF57DF4F19821882C158D04022
:1001A2008FEF9FEFCD57DF4F99838883C358D0409D
:1001B200CB57DF4F19821882C558D040A1E0B0E07A
:1001C200AC0FBD1FC957DF4FB983A883C758D040B2
:1001D200E0E8F0E0C757DF4FF983E883C958D04021
:1001E200CA01A62FE12CF12CFC012491A7FD20814C
:1001F20021111BC0E114F10401F19701C4010E9415
:100202000210C756DF4F88819981AA81C959D0400F
:100212008E0D9F1DA11DF7FCAA95C756DF4F88833F
:100222009983AA83C959D04008C00196A11D2532DD
:1002320009F3FFEFEF1AFF0AD7CFC756DF4F8881C6
:100242009981AA81C959D040FC012491A7FD20813E
:10025200253209F056C39C014A2F2F5F3F4F4F4F63
:10026200C256DF4F288339834A83CE59D040C756BE
:10027200DF4F288339834A83C959D040C756DF4F9D
:1002820088819981AA81C959D040FC012491A7FD96
:1002920020812B3241F4CF57DF4F28813981C15859
:1002A200D04024600BC02C32CCF02D3259F5CF5700
:1002B200DF4F28813981C158D0402160CF57DF4FAD
:1002C20039832883C158D0400196A11DC756DF4FFC
:1002D20088839983AA83C959D040D0CF203241F470
:1002E200CF57DF4F28813981C158D0402860E6CFEF
:1002F200233291F4CF57DF4F28813981C158D04042
:100302002061DCCF203341F4CF57DF4F2881398180
:10031200C158D0402260D2CF2A3299F50196A11D50
:10032200C756DF4F88839983AA83C959D040D50124
:10033200ED91FC911197CF0102968D939C93808150
:100342009181CB57DF4F99838883C558D04097FF5F
:100352003EC0CF57DF4F28813981C158D040B1E02C
:100362002B27CF57DF4F39832883C158D04091952F
:1003720081959109CB57DF4F99838883C558D04027
:1003820026C0BC018A2F0E943C0FCB57DF4F9983B6
:100392008883C558D040C756DF4F288139814A81AA
:1003A200C959D040F901849147FD8081082E000C83
:1003B200990BC0970A9758F42F5F3F4F4F4FC7567C
:1003C200DF4F288339834A83C959D040E4CFCF57BE
:1003D200DF4F88819981C158D04080FF07C08D7F4F
:1003E200CF57DF4F99838883C158D040C756DF4F1C
:1003F20088819981AA81C959D040FC012491A7FD25
:1004020020812E3209F058C0CD57DF4F1982188251
:10041200C358D0409C014A2F2F5F3F4F4F4FC756C2
:10042200DF4F288339834A83C959D040F901549157
:1004320047FD50815A32D1F40296A11DC756DF4FB3
:1004420088839983AA83C959D040D501ED91FC9143
:100452001197CF0102968D939C9380819181CD5704
:10046200DF4F99838883C358D04026C0842FB901B7
:100472000E943C0FCD57DF4F99838883C358D040E9
:10048200C756DF4F288139814A81C959D040F901C5
:10049200849147FD8081082E000C990BC0970A9722
:1004A20058F42F5F3F4F4F4FC756DF4F2883398392
:1004B2004A83C959D040E4CFCE0187569F4F0E944C
:1004C2005C0E182FC756DF4F2881C959D040C65637
:1004D200DF4F8881CA59D040C556DF4F9881CB592A
:1004E200D040E22FF82F849197FD8081082E000CD6
:1004F200990B0E9477128936910509F45AC0B4F417
:100502008336910509F466C144F48532910509F4F4
:10051200A1C18136910529F1B3C18436910509F44F
:1005220048C0883691050CF42DC1AAC180379105C7
:1005320009F4CBC04CF48E36910509F419C18F36FB
:10054200910509F47CC09CC18537910509F454C01A
:100552008837910509F496C08337910509F090C157
:1005620058C1612F70E0A501C6010E94AB10892B12
:1005720009F4B7C1C756DF4F88819981AA81C95949
:10058200D0409C014A2F2F5F3F4F4F4FC756DF4F3E
:10059200288339834A83C959D040FC012491A7FD9D
:1005A2002081A601BE016F577F4FC4010E94DC1259
:1005B20095C1612F70E0950141E050E0C6010E94B3
:1005C2003609892B09F48DC1C756DF4F888199817D
:1005D200AA81C959D0400196A11DC756DF4F888311
:1005E2009983AA83C959D040A601BE016F577F4F94
:1005F200C4010E94D91272C1612F70E0950140E0DE
:1006020050E0C6010E943609892B09F46AC1C75617
:10061200DF4F88819981AA81C959D0400196A11DD5
:10062200C756DF4F88839983AA83C959D040A60150
:10063200BE016F577F4FC4010E94D9124FC1612F73
:1006420070E0950140E050E0C6010E943609892B16
:1006520009F447C1C756DF4F88819981AA81C959D8
:10066200D0400196A11DC756DF4F88839983AA8384
:10067200C959D040A601BE016F577F4FC4010E94E5
:10068200D9122CC1612F70E0950140E050E0C60103
:100692000E943609892B09F424C1C756DF4F88818D
:1006A2009981AA81C959D0409C014A2F2F5F3F4F9F
:1006B2004F4FC756DF4F288339834A83C959D040E9
:1006C200FC012491A7FD20814BC0950140E050E040
:1006D20060EF70E0C6010E943609892B09F401C15E
:1006E200C756DF4F88819981AA81C959D0400196A6
:1006F200A11DC756DF4F88839983AA83C959D04069
:1007020086E02BE031E040E0F901DE01AD56BF4F5B
:10071200742F0E942012D6012C9111963C911197B0
:1007220012964C91129713965C91139714966C91B2
:10073200149715967C91159716968C911697179685
:100742009C91A0E00E94391251F400E010E0CF55D4
:10075200DF4F288139814A81C15AD040B9C028E788
:10076200A601BE016F577F4FC4010E94DC12B6C0C2
:10077200612F70E09501A1014E0D5F1DC6010E941F
:10078200CD0CAFC0612F70E0A501C6010E94AB1075
:10079200892B09F4A6C0C756DF4F88819981AA81A7
:1007A200C959D0409C014A2F2F5F3F4F4F4FC75628
:1007B200DF4F288339834A83C959D040FC012491F1
:1007C200A7FD2081A601BE016F577F4FC4010E9481
:1007D2009A0484C0103809F084C0C756DF4F88815C
:1007E2009981AA81C959D0400196A11DC756DF4FF0
:1007F20088839983AA83C959D040D501ED91FC9190
:100802001197CF0102968D939C938081F60180838C
:100812005BC0103809F065C0C756DF4F88819981E7
:10082200AA81C959D0400196A11DC756DF4F8883BE
:100832009983AA83C959D040D501ED91FC911197B2
:10084200CF0103968D939C9320813181428100E0F8
:1008520010E03EC0103809F044C0C756DF4F88810F
:100862009981AA81C959D0400196A11DC756DF4F6F
:1008720088839983AA83C959D040F601708224C023
:10088200D6017C92C256DF4F288139814A81CE59E6
:10089200D040C756DF4F288339834A83C959D04095
:1008A200CF57DF4F19821882C158D040CB57DF4F44
:1008B20019821882C558D0408FEF9FEFCD57DF4F76
:1008C20099838883C358D04001E010E0462D9201FD
:1008D200BE016F577F4FC4010E94DF128E0D9F1D14
:1008E20011C0C756DF4F88819981AA81C959D0406A
:1008F2000196A11DC756DF4F88839983AA83C959E0
:10090200D040C7017101E80EF91EE214F3044CF461
:100912008FE490E090937D0080937C008FEF9FEFB7
:1009220003C0170121CCC101CD55DF4FE2E10C9488
:02093200221190
:10093400A6E2B0E0E0EAF4E00C9406119F8F8E8FFB
:10094400798F688F122FFB010190F081E02DFA87D7
:10095400E987FB01C280D380248135813C8B2B8BBA
:100964008085918599A388A30680F781E02DFA8379
:10097400E983FA0180809180A280B38020E030E096
:10098400A901C501B4010E94BC1287FF06C0B7FAD1
:10099400B094B7F8B0948DE204C0F985F2FF0CC3AB
:1009A4008BE2E981FA8180832B893C8921503109CA
:1009B40038872F8341E050E05A8B498B06C08B89DE
:1009C4009C8998878F831A8A198AD501C401BF77B5
:1009D4000097E0E8AE07EFE7BE07D9F4212F110F27
:1009E400330B2154310989819A8149895A89840FA9
:1009F400951F2A31310520F44BEF50E060E003C02D
:100A04004FEF50E060E00E9412126FEF70E080E060
:100A14001EC00197A048BF4730F1212F110F330B9F
:100A24002154310989819A8149895A89840F951FF2
:100A34002A31310520F443E051E060E003C047E08F
:100A440051E060E00E94121267E071E080E00E94D1
:100A54009E11E981FA81AF0160E8E984FA840B8987
:100A64001C899C01A1C220E030E0A901C501B401A8
:100A74000E94BC121B821C82882309F467C0F0E820
:100A8400FD832FE32E83212C312C20E030E040E243
:100A940051E46B817C818D819E810E94D212F62E5D
:100AA400072F8D879B87A50194010E94C1121816F8
:100AB40054F03FEF231A330AFB820C834D854D8398
:100AC4005B855E83E2CF1C861B862B813C814D8136
:100AD4005E81C501B4010E94BC1287FF3DC084ED54
:100AE40028168EEF380604F5EB85FC85EF2BE1F430
:100AF40020E030E040E85AE5C501B4010E94D2127A
:100B04004B015C0120E030E040E85AE56B817C81D8
:100B14008D819E810E94D2126B837C838D839E8300
:100B240021E030E03C872B8720E030E040E251E4D4
:100B34006B817C818D819E810E94CE126B837C832C
:100B44008D839E8331E0231A3108BFCF40E84D8363
:100B54005FE35E83212C312C812F110F990B9BA312
:100B64008AA30E9477128B8FD7FC03C0DEA2CDA28A
:100B740004C0E6E0F0E0FEA3EDA3FB8DF73641F4FC
:100B8400CD2809F01EC221E030E03EA32DA319C2F6
:100B94008B8D8D8B04C037FE25C296E69D8BEDA10F
:100BA400FEA13196FEA3EDA3FD89F63699F437FE36
:100BB40008C01B821C8220E82D833FE33E83212C46
:100BC400312C4B8D473631F08DA19EA1820D931DA2
:100BD4009EA38DA39B819B87EC81ED87FD81FE8B7A
:100BE4002E812A8F750164011D8E1C8E8C8D9D8D26
:100BF400EDA1FEA18E179F07C1F12B853D854E897E
:100C04005A8DC701B6010E94CE120E943E0B2B01E1
:100C14003C010E94A9126CA38701760117FB109571
:100C240017F910952B853D854E895A8DC301B20164
:100C34000E94A00A6B017C01F7FAF094F7F8F09493
:100C440020E030E040E251E46B857D858E899A8D09
:100C54000E94CE126B877D878E8B9A8F4C8D5D8D13
:100C64004F5F5F4F5D8F4C8FC1CF20E030E040EA93
:100C740050E46B857D858E899A8D0E94D2122B015A
:100C84003C019B01AC01C701B6010E94BC1287FD67
:100C94000BC0A3019201C701B6010E94BC128111CD
:100CA40006C0FCA1F0FD03C0412C512C3201A3016C
:100CB4009201C501B4010E94A3124B015C012D896C
:100CC400253611F0310102C0612C712C23014DA194
:100CD4005EA1441A550AC988DA8800E010E01C862F
:100CE4001B8689859A85807199279F8B8E8B6414C6
:100CF400750431F48B859C85892B09F49AC0A6C0B0
:100D0400DD8ECC8EE88DF98D808591850597C8168A
:100D1400D90680F72B813C814D815E81C501B401E8
:100D24000E94CE120E943E0B6D877E878F87988B20
:100D34000E94A912CB01EE89FF89EF2B69F4892B5C
:100D440059F4FB8DF73641F477FE06C098012F5F06
:100D54003F4F3D8F2C8F43C04B855C85452BB1F4B1
:100D640077FE14C05FEFC51AD50AE981FA818C8D2C
:100D74009D8DE80FF91F9EE29083EF81F8853197EE
:100D8400F887EF8321E030E03C872B87E981FA8103
:100D9400EC0DFD1D1D8F0C8F8C8D9D8D892B49F0C5
:100DA40030E331934C8D5D8D415051095D8F4C8FF3
:100DB400F3CFC8018C0D9D1D2F813885201B310B6D
:100DC4006C01EFEFCE1ADE0AE981FA81E80FF91F10
:100DD400605D6083A9014150510958874F838501A3
:100DE400740117FB109517F910952B813C814D81E7
:100DF4005E816D857E858F8598890E94A00A4B014E
:100E04005C01B7FAB094B7F8B09420E030E040E267
:100E140051E46B817C818D819E810E94CE126B8313
:100E24007C838D839E8351E0651A71080C8D1D8D22
:100E34005ECFF985F4FF0AC0E981FA81EC0DFD1D4E
:100E44008EE2808396012F5F3F4F690149815A8169
:100E54004C0D5D1D5C874B87FA011082FD89F536C8
:100E640009F061C0E981FA8128A139A1E20FF31FD9
:100E74003197108237FE06C031942194310801E085
:100E840010E002C000E010E0E8A1F9A13197498127
:100E94005A81E40FF51F22E030E08AE0E82EF12CBD
:100EA400CF0149815A81841B950B2114310479F0B7
:100EB400C101B7010E94B411805D82931B012150CE
:100EC40031098F819885019798878F83E9CF12160E
:100ED400130674F3FC013197E40FF51F012B11F491
:100EE4002BE201C02DE220830297E981FA81E80F09
:100EF400F91F2AA13BA1215431092A31310510F0EF
:100F040025E601C025E420832F813885225031094C
:100F140038872F83C816D90634F4AF0160E88B856F
:100F24009C850E94121249815A813A0180E8882ED8
:100F3400998591FF2EC090FD2CC0EF81F8851E1677
:100F44001F063CF5882DB3010E949E1129813A8128
:100F5400820F931F9C0149815A81241B350BE98917
:100F6400FA892E173F074CF0FC012081EF81F885A8
:100F7400E80FF91F20830197EDCF4F81588560E377
:100F840070E089819A818E0F9F1F0E9466121C8ACD
:100F94001B8A882DB3010E949E11E984FA840B896F
:100FA4001C899C01682DA3018E8D9F8D0E94D70BF7
:100FB400A696E2E10C942211598553FF00CD80E2FC
:100FC400F0CC2CEF22162FEF32064CF04DA15EA18F
:100FD400241635060CF4DFCD55E65D8BFBCD35E6E6
:0A0FE4003D8BF8CD46E64D8BF5CDB0
:100FEE00CF93DF93CDB7DEB7E2970FB6F894DEBF9F
:100FFE000FBECDBF0E946F120E94C6120E94840FB8
:10100E000E94EF0920E030E040E858E36091740060
:10101E007091750080917600909177000E94D212A7
:10102E00262E372E082F192F20E030E040E858E307
:10103E0060916C0070916D0080916E0090916F00C8
:10104E000E94D212962E572E482E9EA320E030E0FC
:10105E0040E858E3609160007091610080916200F9
:10106E00909163000E94D212D62EC72EB82EA92EB2
:10107E0023E333E343E851E460916400709165002B
:10108E0080916600909167000E94CE126FA378A7A0
:10109E0089A79AA723E333E343E851E460917800EC
:1010AE007091790080917A0090917B000E94CE120F
:1010BE006BA77CA78DA79EA723E333E343E851E4F8
:1010CE006091700070917100809172009091730028
:1010DE000E94CE126FA778AB89AB9AAB622D732D9F
:1010EE00802F912F0E94361069832EA1692D752DA8
:1010FE00842D922F0E9436106A836D2D7C2D8B2DA0
:10110E009A2D0E9436106B836FA178A589A59AA59A
:10111E000E9436106C836BA57CA58DA59EA50E94A2
:10112E0036106D836FA578A989A99AA90E943610E9
:10113E006E837E0128E0E20EF11C26E030E04EEADE
:10114E0050E060E0C7010E945711CE0101960E9447
:10115E0088111F930F933F922F920F2EF4EB6F2E49
:10116E00F0E07F2EF0E08F2EF02D8F927F926F9217
:10117E00FF92EF920E94DC11CE0101960E9488111F
:10118E002CE030E049EB50E060E0C7010E945711BF
:10119E00CE0101960E94881126E030E045EC50E029
:1011AE0060E0C7010E945711CE0101960E9488117E
:1011BE008EA18F934F925F929F928F927F926F929A
:1011CE00FF92EF920E94DC11CE0101960E948811CF
:1011DE002CE030E049EB50E060E0C7010E9457116F
:1011EE00CE0101960E94881126E030E04BEC50E0D3
:1011FE0060E0C7010E945711CE0101960E9488112E
:10120E00AF92BF92CF92DF928F927F926F92FF92A8
:10121E00EF920E94DC11CE0101960E9488112CE003
:10122E0030E049EB50E060E0C7010E945711CE015B
:10123E0001960E9488119FEF29E688E19150204087
:10124E008040E1F700C0000061E6CE0101960E94E9
:0E125E00F40E0FB6F894DEBF0FBECDBFD1CE9A
:10126C000F931F93CF93DF93FC01D901683871055D
:10127C0031F194F461387105B1F12CF460387105D9
:10128C0009F478C09FC06238710509F459C06438FC
:10129C00710509F46FC096C0603A710509F448C035
:1012AC002CF46039710509F44BC08CC0603C71059D
:1012BC0009F476C0603F710509F472C083C0CD910A
:1012CC00DC911197CE0102968D939C93452B39F0AE
:1012DC009881892F880F880B908381835BC08881CC
:1012EC008083118268C0CD91DC911197CE01049658
:1012FC008D939C93452B99F088819981AA81BB8110
:10130C00AC01BD01770F440B542FBA01808391833C
:10131C00A283B383448345834683478328C00881D3
:10132C0019812A813B81008311832283338345C039
:10133C00CD91DC911197CE0102968D939C9323C095
:10134C00CD91DC911197CE0108968D939C93788169
:10135C0069815A814B813C812D819E818F81708363
:10136C00618352834383348325839683878381E00F
:10137C0090E02AC0CD91DC911197CE0102968D930D
:10138C009C93452BA1F099812881892F880F880B7C
:10139C002083918382838383848385838683E6CFB2
:1013AC00CD91DC911197CE0102968D939C9308817F
:1013BC001981008311831282138214821582168282
:1013CC001782D5CF80E090E0DF91CF911F910F91E4
:0213DC00089572
:1013DE00CF93DF930E945C120E947F12C82FD0E041
:1013EE00DC2FCC270E947F12BE01682B072E000C2B
:1013FE00880B990B0E94C70F609374007093750051
:10140E0080937600909377000E947F12C82FD0E0D1
:10141E00DC2FCC270E947F12BE01682B072E000CFA
:10142E00880B990B0E94C70F60936C0070936D0030
:10143E0080936E0090936F000E947F12C82FD0E0B1
:10144E00DC2FCC270E947F12BE01682B072E000CCA
:10145E00880B990B0E94C70F609360007093610018
:10146E0080936200909363000E947F12C82FD0E099
:10147E00DC2FCC270E947F12BE01682B072E000C9A
:10148E00880B990B0E94C70F6093680070936900D8
:10149E0080936A0090936B000E947F12C82FD0E059
:1014AE00DC2FCC270E947F12BE01682B072E000C6A
:1014BE00880B990B0E94C70F6093640070936500B0
:1014CE0080936600909367000E947F12C82FD0E031
:1014DE00DC2FCC270E947F12BE01682B072E000C3A
:1014EE00880B990B0E94C70F609378007093790058
:1014FE0080937A0090937B000E947F12C82FD0E0D9
:10150E00DC2FCC270E948612BE01682B072E000C02
:10151E00880B990B0E94C70F609370007093710037
:10152E0080937200909373000E94B012DF91CF915E
:02153E0008950E
:10154000A5E1B0E0E6EAFAE00C9406114701580183
:101550000E94D2122B013C01A80197010E94A31204
:10156000162FC72ED82EF92E862F9C2DAD2DBF2DD0
:1015700089839A83AB83BC83AA81FB81EC81ED8054
:101580003E802F8008850D8B5E2F5F71212F3A2FB3
:101590004F2F60E070E080E090E0211531054105BB
:1015A00000E15007610571058105910509F05EC0F4
:1015B0005E2F6E2D732D822D9D8904E30E94CD1028
:1015C0002D873E874F87588B698B7A8B8B8B9C8BB3
:1015D0008D859E8597708F3F974009F447C0A30182
:1015E0009201612F7C2D8D2D9F2D0E94A2129B01B7
:1015F000AC01C501B4010E94BC128823B9F149862F
:101600005A866B867C8629853A854B855C85C50123
:10161000B4010E94A312B62E872E982EA92E262F33
:10162000372F482F592F612F7C2D8D2D9F2D0E94F4
:10163000BC12811118C02B2D8B2D982DA92DBA2DE0
:1016400089839A83AB83BC833A814B815C816E2D05
:10165000732D822D9D89A1E00E944512122FC32E69
:10166000D42EF52E03C01B2D6401FA2C612F7C2D86
:0C1670008D2D9F2D6596E2E10C94221157
:10167C004F925F926F927F928F929F92AF92BF9296
:10168C00CF92DF92EF92FF92CF93DF93CDB7DEB77D
:10169C0028970FB6F894DEBF0FBECDBF6B017C014F
:1016AC00DC01CB0147E1B695A795979587954A95AF
:1016BC00D1F799278F579109873191059CF597FDA3
:1016CC0036C088248A94982C3FE7A32EB12C04C0F2
:1016DC00B594A794979487948A95D2F7D501C401B1
:1016EC008C219D21AE21BF21892B8A2B8B2BD1F0F4
:1016FC0020E030E040E85BE7C701B6010E94A3128E
:10170C006D837E838F839887F7FE04C0C80CD91C29
:10171C00EA1CFB1C80949094A094B094C820D9200F
:10172C00EA20FB205C2D4D2D3E2D2F2D21C020E0DD
:10173C0030E040E85BE7C701B6010E94A312698361
:10174C007A838B839C83F7FE0FC0D701C601880F69
:10175C00991FAA1FBB1F892B8A2B8B2B19F350E0C7
:10176C0040E030E82FEB04C050E040E030E020E0F7
:10177C00652F742F832F922F28960FB6F894DEBF07
:10178C000FBECDBFDF91CF91FF90EF90DF90CF9048
:10179C00BF90AF909F908F907F906F905F904F9085
:0217AC0008959E
:1017AE002F923F924F926F927F928F92AF92BF92F3
:1017BE00CF92DF92EF92FF920F931F93CF93DF930F
:1017CE00CDB7DEB766970FB6F894DEBF0FBECDBFAE
:1017DE005C013A01862E6901C701817099279C8BA5
:1017EE008B8BE0FC1DC020173107D4F47801EC1868
:1017FE00FD08FE8AED8AA70191E1E916F10410F0C9
:10180E0040E150E060E270E0CE0101969A8B898B48
:10181E000E94661289899A891C0120E8422E0BC00B
:10182E009601682DA301C5010E940210C016D106B3
:10183E00ECF2C60125C090E1E916F10458F020E162
:10184E0030E0642DA101C5010E94021080E1E81A6A
:10185E00F108F1CF2D893E892F70332789899A8916
:10186E00AC0160E8C5010E9402108B899C89892B0E
:10187E0031F49601682DA301C5010E940210C80122
:10188E0066960FB6F894DEBF0FBECDBFDF91CF9137
:10189E001F910F91FF90EF90DF90CF90BF90AF9080
:0E18AE008F907F906F904F903F902F900895F5
:1018BC0010C00E94941258F00E948D1240F029F42E
:1018CC005F3F29F00C94B61251110C949C120C949D
:1018DC00D6120E94891068F39923B1F3552391F322
:1018EC00951B550BBB27AA2762177307840738F083
:1018FC009F5F5F4F220F331F441FAA1FA9F335D0E0
:10190C000E2E3AF0E0E832D091505040E695001C93
:10191C00CAF72BD0FE2F29D0660F771F881FBB1F4D
:10192C00261737074807AB07B0E809F0BB0B802D2B
:10193C00BF01FF2793585F4F3AF09E3F510578F057
:10194C000C94B6120C949C125F3FE4F3983ED4F3C3
:10195C00869577956795B795F7959F5FC9F7880F2B
:10196C00911D9695879597F90895E1E0660F771F7D
:10197C00881FBB1F621773078407BA0720F0621B0E
:0E198C00730B840BBA0BEE1F88F7E0950895DD
:10199A00CF93DF93DC01F90164387105D9F164F45E
:1019AA006138710521F16238710509F440C0603867
:1019BA00710509F054C02EC060397105C1F184F473
:1019CA006838710509F04BC0C081D181CE010296F9
:1019DA0091838083E881F981ED93FC9340833CC035
:1019EA00603A7105B9F0603C7105A1F038C0C08158
:1019FA00D181CE01029691838083E881F981ED93AA
:101A0A00FC93052E000C660B770B4083518362838F
:101A1A00738322C0C081D181CE01029691838083D3
:101A2A00E881F981ED93FC935183408315C0C0810D
:101A3A00D181CE01029691838083E881F981ED9369
:101A4A00FC9351834083852F880F880B828383837D
:101A5A00848385838683878381E090E002C080E067
:081A6A0090E0DF91CF91089597
:101A72000FC00E948D1238F00E94941220F095231C
:101A820011F00C94B6120C94D61211240C949C12E0
:101A92000E94891070F3959FC1F3950F50E0551F76
:101AA200629FF001729FBB27F00DB11D639FAA27B1
:101AB200F00DB11DAA1F649F6627B00DA11D661F00
:101AC200829F2227B00DA11D621F739FB00DA11D21
:101AD200621F839FA00D611D221F749F3327A00DDB
:101AE200611D231F849F600D211D822F762F6A2F77
:101AF20011249F5750409AF0F1F088234AF0EE0FDC
:101B0200FF1FBB1F661F771F881F91505040A9F708
:101B12009E3F510580F00C94B6120C949C125F3FCC
:101B2200E4F3983ED4F3869577956795B795F79544
:101B3200E7959F5FC1F7FE2B880F911D96958795BC
:041B420097F9089572
:101B460011C00E948D1238F00E94941220F039F4D0
:101B56009F3F19F426F40C94D6120EF4E095E7FB99
:101B66000C94B612E92F0E94891058F3BA1762072F
:101B760073078407950720F079F4A6F50C949B1259
:101B86000EF4E0950B2EBA2FA02D0B01B901900192
:101B96000C01CA01A0011124FF27591B99F0593FD6
:101BA60050F4503E68F11A16F040A22F232F342F1E
:101BB6004427585FF3CF469537952795A795F0406C
:101BC6005395C9F77EF41F16BA0B620B730B840B81
:101BD600BAF09150A1F0FF0FBB1F661F771F881F39
:101BE600C2F70EC0BA0F621F731F841F48F4879591
:101BF60077956795B795F7959E3F08F0B0CF939583
:0E1C0600880F08F09927EE0F9795879508959F
:101C14006F927F928F92EF92FF920F931F93CF93C5
:101C2400DF93CDB7DEB761970FB6F894DEBF0FBE72
:101C3400CDBFFE01319651E1DF011D925A95E9F7BE
:101C4400A2E0B1E0BA83A9839C838B8377FF09C0A8
:101C54008FE490E090937D0080937C008FEF9FEF62
:101C640019C03901842E7C01615071097F836E8310
:101C74009801682DA301CF010E94701148855985F0
:101C84002E813F814217530708F49A01F701E20FAE
:101C9400F31F108261960FB6F894DEBF0FBECDBF5E
:101CA400DF91CF911F910F91FF90EF908F907F90D4
:041CB4006F90089590
:101CB800CF92DF92EF92DC0190E0292F30E0220FE3
:101CC800331F6901032E000CEE086E2DA6014F523A
:101CD8005F4F6F4F6A01E62EFA018491E7FC80811D
:101CE80081110DC02F5F3F4F032E000C440B2F5264
:101CF8003F4F4F4FF901849147FD808124C0CD901B
:101D0800DD90EC901297F6014491E7FC4081841332
:101D180015C02F5F3F4F032E000C440B2F523F4F2F
:101D28004F4FF901949147FD90815FEFC51AD50A8D
:101D3800E50ACD92DD92EC92129701C09F5F9B302D
:0E1D480008F4BBCF892FEF90DF90CF90089565
:101D56000F931F93CF93DF93DB012D913C91119746
:101D660030FF25C017964D915C91189715962D91C9
:101D76003C9116974217530778F41296ED91FC9111
:101D86001397808312962D913C9113972F5F3F4FA7
:101D960013963C932E93129717962D913C91189774
:101DA6002F5F3F4F18963C932E93179715C01D969D
:101DB600ED91FC911E97309719F48FEF9FEF0CC0B1
:101DC6008B01EC010995892BC1F7F8018781908574
:101DD600019690878783CE01DF91CF911F910F9156
:021DE60008955E
:101DE800EF92FF920F931F93CF93DF93CDB7DEB798
:101DF80064970FB6F894DEBF0FBECDBF7C0127EE07
:101E080030E040E083E1F901DE011196742F0E9471
:101E180020121C8A613631F013C00E94CA120F5F6B
:101E28001F4F02C000E010E0F701E00FF11F8781AB
:101E38008111F3CF10C00E94CA120F5F1F4F02C05A
:101E480000E010E0E1E0F0E0EC0FFD1FE00FF11F13
:101E580080818111F0CF64960FB6F894DEBF0FBE73
:101E6800CDBFDF91CF911F910F91FF90EF90089513
:101E7800CF939B01482FF901849147FD80818032DF
:101E8800C9F1682F082E000C770B6950710965306D
:101E9800710580F18B3249F5A0E0B0E02F5F3F4F2C
:101EA8004F4F02C0A0E0B0E080E090E0CAE0F90146
:101EB800649147FD6081062E000C770B6053710911
:101EC8006A30710560F4C89FF001C99FF00D1124B4
:101ED8002F5F3F4F4F4FCF01861B970BE8CFAB2BA0
:101EE80069F491958195910909C08D32D9F6A1E0DF
:101EF800B0E0D4CF2F5F3F4F4F4FBDCFCF91089564
:101F08002FE789EA93E0215080409040E1F700C034
:101F1800000080ED0E943D1189E10E94EF1187E0E9
:101F28000E94EF110E94B01280ED0E943D118BE6D5
:101F38000E94EF1181E00E94EF110E94B01280ED23
:101F48000E943D118AE10E94EF1180E00E94EF118A
:101F58000E94B01280ED0E943D118BE10E94EF11AA
:101F680088E10E94EF110E94B01280ED0E943D119D
:101F780088E30E94EF1181E00E94EF110E94B012E5
:021F88000895BA
:101F8A00E89409C097FB3EF4909580957095619509
:101F9A007F4F8F4F9F4F9923A9F0F92F96E9BB27BF
:101FAA009395F695879577956795B795F111F8CF3B
:101FBA00FAF4BB0F11F460FF1BC06F5F7F4F8F4FA6
:101FCA009F4F16C0882311F096E911C0772321F09C
:101FDA009EE8872F762F05C0662371F096E8862F34
:101FEA0070E060E02AF09A95660F771F881FDAF78B
:0A1FFA00880F9695879597F90895D2
:102004006F927F928F92CF92DF92EF920F931F93F2
:10201400CF93DF938C016A01E62EE9013A01862E03
:10202400620E731E811C37FD8A94C614D704E8041B
:1020340079F0F6018491E7FC8081B801082E000C48
:10204400990B0E94AB0E8FEFC81AD80AE80AEDCF9D
:10205400CE01DF91CF911F910F91EF90DF90CF9040
:082064008F907F906F900895AA
:10206C000E94911088F09F5798F0B92F9927B7517B
:10207C00B0F0E1F0660F771F881F991F1AF0BA9520
:10208C00C9F714C0B13091F00E949B12B1E00895D1
:10209C000C949B12672F782F8827B85F39F0B93FC3
:1020AC00CCF3869577956795B395D9F73EF49095D3
:0E20BC008095709561957F4F8F4F9F4F0895CF
:1020CA00990F0008550FAA0BE0E8FEEF161617063F
:1020DA00E807F907C0F012161306E407F50798F0A7
:1020EA00621B730B840B950B39F40A2661F0232BC0
:1020FA00242B252B21F408950A2609F4A140A6953C
:08210A008FEF811D811D089576
:1021120057FD9058440F551F59F05F3F71F0479596
:10212200880F97FB991F61F09F3F79F0879508957B
:10213200121613061406551FF2CF4695F1DF08C09A
:10214200161617061806991FF1CF869571056105B7
:042152000894089550
:10215600FA0160387105CCF0623871051CF06338FD
:10216600710599F4A081B1819D012C5F3F4F3183A8
:1021760020834D915D916D917C91FC01408351834B
:102186006283738381E090E0089580E090E0089593
:1021960097FB10F8169400080F93083098F0085033
:1021A600232F342F452F562F672F782F892F902DC9
:1021B600F4CF0594979587957795679557954795A5
:0C21C600379527950A95AAF70F91089508
:1021D20094EA96BF06B607FEFDCF91B1987F903183
:1021E20071F483B984E886BF06B607FEFDCF81B1DC
:1021F200887F803431F0803231F482E0089580E0CB
:0A220200089581E0089583E0089537
:10220C002F923F924F925F926F927F928F929F92FA
:10221C00AF92BF92CF92DF92EF92FF920F931F93E8
:10222C00CF93DF93CDB7DEB7CA1BDB0B0FB6F89499
:08223C00DEBF0FBECDBF099407
:102244002A88398848885F846E847D848C849B8442
:10225400AA84B984C884DF80EE80FD800C811B8150
:10226400AA81B981CE0FD11D0FB6F894DEBF0FBE7F
:06227400CDBFED0108954D
:10227A00CF93C82F84EA86BF06B607FEFDCF81B189
:10228A00887F8830B9F7C3B984E886BF06B607FEE7
:10229A00FDCF81B1887F883119F00E94B012EACF50
:0422AA00CF91089533
:1022AE00CF92DF92EF926A01E62EDC01280F391FE2
:1022BE00A217B30751F0F6014491E7FC40814D930C
:1022CE004FEFC41AD40AE40AF3CFEF90DF90CF9009
:0222DE00089561
:1022E000A2E0B0E0E6E7F1E10C9414118C013A832E
:1022F00029839E012F5F3F4F0E948900F8012081B2
:1023000024FF02C08FEF9FEF2296E4E00C9430117F
:102310000F931F93CF93DF938C01C0E0D0E003C0F5
:102320000E94CA122196F801EC0FFD1F87818111CE
:0C233000F7CFDF91CF911F910F9108951E
:10233C00CF92DF92EF926B01E82EA82FCB01FC011C
:10234C002491A7FD2081222319F00196A11DF7CF1E
:0C235C008C199D09EF90DF90CF90089540
:1023680097FB072E16F4009407D077FD09D00E943A
:10237800C81107FC05D03EF4909581959F4F0895AC
:08238800709561957F4F0895E7
:10239000AA1BBB1B51E107C0AA1FBB1FA617B7078B
:1023A00010F0A61BB70B881F991F5A95A9F78095A7
:0823B0009095BC01CD010895D8
:1023B800A0E0B0E0E2EEF1E10C9416119E01265F78
:1023C8003F4F4F81588569858D819E810E942D12CE
:0623D800E2E00C9432115A
:1023DE0083B984E886BF06B607FEFDCF81B1887F3C
:1023EE00883221F0803321F481E0089580E0089551
:0423FE0082E00895DC
:10240200092E0394000C11F4882352F0BB0F40F400
:10241200BF2B11F460FF04C06F5F7F4F8F4F9F4F40
:0224220008951B
:102424009A01462FDC01F901549147FD50815D93D7
:0C2434002F5F3F4F4F4F5111F6CF08951E
:10244000992777FD05C005900D920197E1F7089552
:0A24500001900D920197E1F7089545
:10245A000F931F9389019A01462F6FEF7FE70E941E
:08246A000A0E1F910F91089565
:102472000024A7FD00942A17300540055005600589
:08248200700580059005089526
:10248A000024A7FD00942A0F301D401D501D601D19
:08249A00701D801D901D0895C6
:1024A200EC010E94E7120E94E612CE010E94E8129D
:0624B200CE010E94E412BD
:1024B80080ED0E943D118BE30E94EF1181ED0E9497
:0424C800E91008957A
:1024CC00FC01480F591FE417F50711F06193FBCF7E
:0224DC00089561
:1024DE0010BC8FEC89B988E18AB986E880BD089571
:1024EE009C01215431092A31310508F48062089586
:0E24FE0084EC86BF06B607FEFDCF83B10895BD
:0E250C0084E886BF06B607FEFDCF83B10895B2
:0E251A0000240A9416161706180609060895DE
:0E25280000240A9412161306140605060895E0
:0E253600E894BB2766277727CB0197F9089515
:0E2544005058BB27AA270E94A30D0C94011229
:0E2552000E9436106894B1110C949C120895EA
:0C25600084E986BF06B604FCFDCF089598
:0C256C0097F99F6780E870E060E0089538
:0A2578000E94651008F481E0089548
:0A2582000E94651008F48FEF089521
:08258C0011B880E280B9089546
:082594005D9BFECF8CB9089598
:08259C000E945E0C0C94011278
:0825A4000E94390D0C94011294
:0625AC009FEF80EC089592
:0625B20080E090E00895B6
:0625B80080E090E00895B0
:0625BE0080E090E00895AA
:0425C4000C94000073
:0425C8000E94550018
:0225CC00089570
:0225CE0008956E
:0225D00008956C
:00000001FF
