:100000000C942D000C9462140C9462140C946214E1
:100010000C9462140C9462140C9462140C94621488
:100020000C9462140C9462140C9462140C94621478
:100030000C9462140C9462140C9462140C94621468
:100040000C9462140C9462140C9462140C94621458
:100050000C9462140060007E800011241FBECFE566
:10006000D8E0DEBFCDBFE4E5F0E040E017C0B591D9
:10007000A59135912591059107FD0CC0959185912C
:10008000EF01F92FE82F05900D92A217B307D9F7CA
:10009000FE0104C01D92A217B307E1F7E935F4078A
:0E00A00031F70E94E4070C94B513F894FFCFDB
:1000AE0068076C094C836A9074A07AC000806888D7
:0600BE0000846C82008149
:1000C400252E31660078613D0059613D005A613D3D
:0100D400002B
:1000D500494E4600696E66004E414E006E616E00E7
:0600E500286E696C290081
:1000EC00A3EAB0E0ECE7F0E00C9441124C015901AA
:1000FC00C756DF4F488359836A83C959D040212C96
:10010C00312C6E012BE8C20ED11C85E2782E260113
:10011C0030E8632ECE018D569F4FC456DF4F998326
:10012C008883CC59D0409C0140E8CF55DF4F2883C1
:10013C0039834A83C15AD040C756DF4F4881C959C9
:10014C00D040C656DF4F5881CA59D040C556DF4FF4
:10015C006881CB59D040FA01849167FD8081882356
:10016C0009F4C9C3CF57DF4F19821882C158D04048
:10017C008FEF9FEFCD57DF4F99838883C358D040C3
:10018C00CB57DF4F19821882C558D040A1E0B0E0A0
:10019C00AC0FBD1FC957DF4FB983A883C758D040D8
:1001AC00E0E8F0E0C757DF4FF983E883C958D04047
:1001BC00CA01A62FE12CF12CFC012491A7FD208172
:1001CC0021111BC0E114F10401F19701C4010E943B
:1001DC00BC10C756DF4F88819981AA81C959D0407C
:1001EC008E0D9F1DA11DF7FCAA95C756DF4F888366
:1001FC009983AA83C959D04008C00196A11D253204
:10020C0009F3FFEFEF1AFF0AD7CFC756DF4F8881EC
:10021C009981AA81C959D040FC012491A7FD208164
:10022C00253209F056C39C014A2F2F5F3F4F4F4F89
:10023C00C256DF4F288339834A83CE59D040C756E4
:10024C00DF4F288339834A83C959D040C756DF4FC3
:10025C0088819981AA81C959D040FC012491A7FDBC
:10026C0020812B3241F4CF57DF4F28813981C1587F
:10027C00D04024600BC02C32CCF02D3259F5CF5726
:10028C00DF4F28813981C158D0402160CF57DF4FD3
:10029C0039832883C158D0400196A11DC756DF4F22
:1002AC0088839983AA83C959D040D0CF203241F496
:1002BC00CF57DF4F28813981C158D0402860E6CF15
:1002CC00233291F4CF57DF4F28813981C158D04068
:1002DC002061DCCF203341F4CF57DF4F28813981A7
:1002EC00C158D0402260D2CF2A3299F50196A11D77
:1002FC00C756DF4F88839983AA83C959D040D5014B
:10030C00ED91FC911197CF0102968D939C93808176
:10031C009181CB57DF4F99838883C558D04097FF85
:10032C003EC0CF57DF4F28813981C158D040B1E052
:10033C002B27CF57DF4F39832883C158D040919555
:10034C0081959109CB57DF4F99838883C558D0404D
:10035C0026C0BC018A2F0E94F60FCB57DF4F998322
:10036C008883C558D040C756DF4F288139814A81D0
:10037C00C959D040F901849147FD8081082E000CA9
:10038C00990BC0970A9758F42F5F3F4F4F4FC756A2
:10039C00DF4F288339834A83C959D040E4CFCF57E4
:1003AC00DF4F88819981C158D04080FF07C08D7F75
:1003BC00CF57DF4F99838883C158D040C756DF4F42
:1003CC0088819981AA81C959D040FC012491A7FD4B
:1003DC0020812E3209F058C0CD57DF4F1982188278
:1003EC00C358D0409C014A2F2F5F3F4F4F4FC756E9
:1003FC00DF4F288339834A83C959D040F90154917E
:10040C0047FD50815A32D1F40296A11DC756DF4FD9
:10041C0088839983AA83C959D040D501ED91FC9169
:10042C001197CF0102968D939C9380819181CD572A
:10043C00DF4F99838883C358D04026C0842FB901DD
:10044C000E94F60FCD57DF4F99838883C358D04055
:10045C00C756DF4F288139814A81C959D040F901EB
:10046C00849147FD8081082E000C990BC0970A9748
:10047C0058F42F5F3F4F4F4FC756DF4F28833983B8
:10048C004A83C959D040E4CFCE0187569F4F0E9472
:10049C005E0F182FC756DF4F2881C959D040C6565A
:1004AC00DF4F8881CA59D040C556DF4F9881CB5950
:1004BC00D040E22FF82F849197FD8081082E000CFC
:1004CC00990B0E94E6138936910509F45AC0B4F4CD
:1004DC008336910509F466C144F48532910509F41B
:1004EC00A1C18136910529F1B3C18436910509F476
:1004FC0048C0883691050CF42DC1AAC180379105EE
:10050C0009F4CBC04CF48E36910509F419C18F3621
:10051C00910509F47CC09CC18537910509F454C040
:10052C008837910509F496C08337910509F090C17D
:10053C0058C1612F70E0A501C6010E94AA11892B38
:10054C0009F4B7C1C756DF4F88819981AA81C9596F
:10055C00D0409C014A2F2F5F3F4F4F4FC756DF4F64
:10056C00288339834A83C959D040FC012491A7FDC3
:10057C002081A601BE016F577F4FC4010E945C14FD
:10058C0095C1612F70E0950141E050E0C6010E94D9
:10059C00B009892B09F48DC1C756DF4F8881998129
:1005AC00AA81C959D0400196A11DC756DF4F888337
:1005BC009983AA83C959D040A601BE016F577F4FBA
:1005CC00C4010E94591472C1612F70E0950140E082
:1005DC0050E0C6010E94B009892B09F46AC1C756C4
:1005EC00DF4F88819981AA81C959D0400196A11DFC
:1005FC00C756DF4F88839983AA83C959D040A60177
:10060C00BE016F577F4FC4010E9459144FC1612F17
:10061C0070E0950140E050E0C6010E94B009892BC2
:10062C0009F447C1C756DF4F88819981AA81C959FE
:10063C00D0400196A11DC756DF4F88839983AA83AA
:10064C00C959D040A601BE016F577F4FC4010E940B
:10065C0059142CC1612F70E0950140E050E0C601A7
:10066C000E94B009892B09F424C1C756DF4F888139
:10067C009981AA81C959D0409C014A2F2F5F3F4FC5
:10068C004F4FC756DF4F288339834A83C959D0400F
:10069C00FC012491A7FD20814BC0950140E050E066
:1006AC0060EF70E0C6010E94B009892B09F401C10A
:1006BC00C756DF4F88819981AA81C959D0400196CC
:1006CC00A11DC756DF4F88839983AA83C959D0408F
:1006DC0086E025EE30E040E0F901DE01AD56BF4F7B
:1006EC00742F0E948413D6012C9111963C91119772
:1006FC0012964C91129713965C91139714966C91D9
:10070C00149715967C91159716968C9116971796AB
:10071C009C91A0E00E949D1351F400E010E0CF5595
:10072C00DF4F288139814A81C15AD040B9C028E7AE
:10073C00A601BE016F577F4FC4010E945C14B6C066
:10074C00612F70E09501A1014E0D5F1DC6010E9445
:10075C00CF0DAFC0612F70E0A501C6010E94AA1198
:10076C00892B09F4A6C0C756DF4F88819981AA81CD
:10077C00C959D0409C014A2F2F5F3F4F4F4FC7564E
:10078C00DF4F288339834A83C959D040FC01249117
:10079C00A7FD2081A601BE016F577F4FC4010E94A7
:1007AC00870484C0103809F084C0C756DF4F888195
:1007BC009981AA81C959D0400196A11DC756DF4F16
:1007CC0088839983AA83C959D040D501ED91FC91B6
:1007DC001197CF0102968D939C938081F6018083B3
:1007EC005BC0103809F065C0C756DF4F888199810E
:1007FC00AA81C959D0400196A11DC756DF4F8883E5
:10080C009983AA83C959D040D501ED91FC911197D8
:10081C00CF0103968D939C9320813181428100E01E
:10082C0010E03EC0103809F044C0C756DF4F888135
:10083C009981AA81C959D0400196A11DC756DF4F95
:10084C0088839983AA83C959D040F601708224C049
:10085C00D6017C92C256DF4F288139814A81CE590C
:10086C00D040C756DF4F288339834A83C959D040BB
:10087C00CF57DF4F19821882C158D040CB57DF4F6A
:10088C0019821882C558D0408FEF9FEFCD57DF4F9C
:10089C0099838883C358D04001E010E0462D920123
:1008AC00BE016F577F4FC4010E945F148E0D9F1DB8
:1008BC0011C0C756DF4F88819981AA81C959D04090
:1008CC000196A11DC756DF4F88839983AA83C95906
:1008DC00D040C7017101E80EF91EE214F3044CF488
:1008EC008FE490E090937D0080937C008FEF9FEFDE
:1008FC0003C0170121CCC101CD55DF4FE2E10C94AF
:02090C005D127A
:10090E00A6E2B0E0EDE8F4E00C9441129F8F8E8FDA
:10091E00798F688F122FFB010190F081E02DFA87FD
:10092E00E987FB01C280D380248135813C8B2B8BE0
:10093E008085918599A388A30680F781E02DFA839F
:10094E00E983FA0180809180A280B38020E030E0BC
:10095E00A901C501B4010E94391487FF06C0B7FA78
:10096E00B094B7F8B0948DE204C0F985F2FF0CC3D1
:10097E008BE2E981FA8180832B893C8921503109F0
:10098E0038872F8341E050E05A8B498B06C08B8904
:10099E009C8998878F831A8A198AD501C401BF77DB
:1009AE000097E0E8AE07EFE7BE07D9F4212F110F4D
:1009BE00330B2154310989819A8149895A89840FCF
:1009CE00951F2A31310520F445ED50E060E003C05B
:1009DE0049ED50E060E00E94761369ED70E080E032
:1009EE001EC00197A048BF4730F1212F110F330BC6
:1009FE002154310989819A8149895A89840F951F19
:100A0E002A31310520F44DED50E060E003C041EE97
:100A1E0050E060E00E94761361EE70E080E00E948C
:100A2E00C012E981FA81AF0160E8E984FA840B898A
:100A3E001C899C01A1C220E030E0A901C501B401CE
:100A4E000E9439141B821C82882309F467C0F0E8C7
:100A5E00FD832FE32E83212C312C20E030E040E269
:100A6E0051E46B817C818D819E810E944F14F62E04
:100A7E00072F8D879B87A50194010E943E1418169F
:100A8E0054F03FEF231A330AFB820C834D854D83BE
:100A9E005B855E83E2CF1C861B862B813C814D815C
:100AAE005E81C501B4010E94391487FF3DC084EDFB
:100ABE0028168EEF380604F5EB85FC85EF2BE1F456
:100ACE0020E030E040E85AE5C501B4010E944F1421
:100ADE004B015C0120E030E040E85AE56B817C81FF
:100AEE008D819E810E944F146B837C838D839E83A8
:100AFE0021E030E03C872B8720E030E040E251E4FB
:100B0E006B817C818D819E810E944B146B837C83D3
:100B1E008D839E8331E0231A3108BFCF40E84D8389
:100B2E005FE35E83212C312C812F110F990B9BA338
:100B3E008AA30E94E6138B8FD7FC03C0DEA2CDA240
:100B4E0004C0E6E0F0E0FEA3EDA3FB8DF73641F422
:100B5E00CD2809F01EC221E030E03EA32DA319C21C
:100B6E008B8D8D8B04C037FE25C296E69D8BEDA135
:100B7E00FEA13196FEA3EDA3FD89F63699F437FE5C
:100B8E0008C01B821C8220E82D833FE33E83212C6C
:100B9E00312C4B8D473631F08DA19EA1820D931DC8
:100BAE009EA38DA39B819B87EC81ED87FD81FE8BA0
:100BBE002E812A8F750164011D8E1C8E8C8D9D8D4C
:100BCE00EDA1FEA18E179F07C1F12B853D854E89A4
:100BDE005A8DC701B6010E944B140E94B80B2B010F
:100BEE003C010E9426146CA38701760117FB109519
:100BFE0017F910952B853D854E895A8DC301B2018B
:100C0E000E941A0B6B017C01F7FAF094F7F8F0943E
:100C1E0020E030E040E251E46B857D858E899A8D2F
:100C2E000E944B146B877D878E8B9A8F4C8D5D8DBA
:100C3E004F5F5F4F5D8F4C8FC1CF20E030E040EAB9
:100C4E0050E46B857D858E899A8D0E944F142B0101
:100C5E003C019B01AC01C701B6010E94391487FD0E
:100C6E000BC0A3019201C701B6010E943914811174
:100C7E0006C0FCA1F0FD03C0412C512C3201A30192
:100C8E009201C501B4010E940B144B015C012D8928
:100C9E00253611F0310102C0612C712C23014DA1BA
:100CAE005EA1441A550AC988DA8800E010E01C8655
:100CBE001B8689859A85807199279F8B8E8B6414EC
:100CCE00750431F48B859C85892B09F49AC0A6C0D6
:100CDE00DD8ECC8EE88DF98D808591850597C816B1
:100CEE00D90680F72B813C814D815E81C501B4010F
:100CFE000E944B140E94B80B6D877E878F87988B4E
:100D0E000E942614CB01EE89FF89EF2B69F4892B03
:100D1E0059F4FB8DF73641F477FE06C098012F5F2C
:100D2E003F4F3D8F2C8F43C04B855C85452BB1F4D7
:100D3E0077FE14C05FEFC51AD50AE981FA818C8D52
:100D4E009D8DE80FF91F9EE29083EF81F885319714
:100D5E00F887EF8321E030E03C872B87E981FA8129
:100D6E00EC0DFD1D1D8F0C8F8C8D9D8D892B49F0EB
:100D7E0030E331934C8D5D8D415051095D8F4C8F19
:100D8E00F3CFC8018C0D9D1D2F813885201B310B93
:100D9E006C01EFEFCE1ADE0AE981FA81E80FF91F36
:100DAE00605D6083A9014150510958874F838501C9
:100DBE00740117FB109517F910952B813C814D810D
:100DCE005E816D857E858F8598890E941A0B4B01F9
:100DDE005C01B7FAB094B7F8B09420E030E040E28E
:100DEE0051E46B817C818D819E810E944B146B83BB
:100DFE007C838D839E8351E0651A71080C8D1D8D49
:100E0E005ECFF985F4FF0AC0E981FA81EC0DFD1D74
:100E1E008EE2808396012F5F3F4F690149815A818F
:100E2E004C0D5D1D5C874B87FA011082FD89F536EE
:100E3E0009F061C0E981FA8128A139A1E20FF31FFF
:100E4E003197108237FE06C031942194310801E0AB
:100E5E0010E002C000E010E0E8A1F9A1319749814D
:100E6E005A81E40FF51F22E030E08AE0E82EF12CE3
:100E7E00CF0149815A81841B950B2114310479F0DD
:100E8E00C101B7010E94EA12805D82931B012150BD
:100E9E0031098F819885019798878F83E9CF121634
:100EAE00130674F3FC013197E40FF51F012B11F4B7
:100EBE002BE201C02DE220830297E981FA81E80F2F
:100ECE00F91F2AA13BA1215431092A31310510F015
:100EDE0025E601C025E420832F8138852250310973
:100EEE0038872F83C816D90634F4AF0160E88B8596
:100EFE009C850E94761349815A813A0180E8882E9A
:100F0E00998591FF2EC090FD2CC0EF81F8851E169D
:100F1E001F063CF5882DB3010E94C01229813A812B
:100F2E00820F931F9C0149815A81241B350BE9893D
:100F3E00FA892E173F074CF0FC012081EF81F885CE
:100F4E00E80FF91F20830197EDCF4F81588560E39D
:100F5E0070E089819A818E0F9F1F0E94DD131C8A7B
:100F6E001B8A882DB3010E94C012E984FA840B8972
:100F7E001C899C01682DA3018E8D9F8D0E94D90C1A
:100F8E00A696E2E10C945D12598553FF00CD80E2E6
:100F9E00F0CC2CEF22162FEF32064CF04DA15EA1B5
:100FAE00241635060CF4DFCD55E65D8BFBCD35E60C
:0A0FBE003D8BF8CD46E64D8BF5CDD6
:100FC800CF93DF93CDB7DEB7C05AD1090FB6F894E7
:100FD800DEBF0FBECDBF20E044E064E187E20E949F
:100FE800510C29833A834B835C836D837E838F8383
:100FF800CE0101960E94F5130E9447140E943E10EC
:101008000E94690A20E030E040E858E360917400EB
:101018007091750080917600909177000E944F142E
:10102800E62ED72EC82E992E20E030E040E858E36F
:1010380060916C0070916D0080916E0090916F00CE
:101048000E944F14B62EA72E382E292E20E030E00D
:1010580040E858E3609160007091610080916200FF
:10106800909163000E944F14CC56DF4F6883C45997
:10107800D040172F082F492E23E333E343E851E4E8
:10108800609164007091650080916600909167009E
:101098000E944B14CB56DF4F6883C559D040CA56BF
:1010A800DF4F7883C659D040C956DF4F8883C75968
:1010B800D040C856DF4F9883C859D04023E333E364
:1010C80043E851E4609178007091790080917A004A
:1010D80090917B000E944B14C756DF4F6883C95913
:1010E800D040C656DF4F7883CA59D040C556DF4F27
:1010F8008883CB59D040C456DF4F9883CC59D04011
:1011080023E333E343E851E4609170007091710088
:1011180080917200909173000E944B14C356DF4F68
:101128006883CD59D040C256DF4F7883CE59D0401E
:10113800C156DF4F8883CF59D040C056DF4F9883C0
:10114800C05AD04020E030E04AEA53E46091680099
:101158007091690080916A0090916B000E944B1415
:1011680028EB3EE142E152E40E940B14F62E772E62
:10117800682E592E9F92CF92DF92EF920F2EF4ECA9
:10118800CF2EF0E0DF2EF0E0EF2EF02DEF92DF9281
:10119800CF924E0128E0820E911C9F928F920E945E
:1011A80012132F923F92AF92BF92EF92DF92CF929B
:1011B8005E018CE1A80EB11CBF92AF920E9412137F
:1011C8004F920F931F93CC56DF4F9881C459D0404C
:1011D8009F93EF92DF92CF928E01005D1F4F1F9376
:1011E8000F930E941213C856DF4F2881C859D04068
:1011F8002F93C956DF4F8881C759D0408F93CA565D
:10120800DF4F9881C659D0409F93CB56DF4F288136
:10121800C559D0402F93EF92DF92CF92CE01885AD2
:101228009F4F9F938F930E9412130FB6F894DEBFBF
:101238000FBECDBFC456DF4F9881CC59D0409F9385
:10124800C556DF4F2881CB59D0402F93C656DF4F64
:101258008881CA59D0408F93C756DF4F9881C959A2
:10126800D0409F93EF92DF92CF92CE0184599F4F47
:101278009F938F930E941213C056DF4F2881C05A44
:10128800D0402F93C156DF4F8881CF59D0408F93DC
:10129800C256DF4F9881CE59D0409F93C356DF4F37
:1012A8002881CD59D0402F93EF92DF92CF92CE0173
:1012B80080589F4F9F938F930E9412135F926F9253
:1012C8007F92FF92EF92DF92CF92CE018C5B9F4F7D
:1012D8009F938F930E94121349EC50E060E0CE0177
:1012E80001960E948911A40160E8CE0101960E942E
:1012F80089114DEC50E060E0CE0101960E94891101
:10130800A50160E8CE0101960E94891140E061E0E4
:10131800CE0101960E94CA1141ED50E060E0CE0175
:1013280001960E948911A80160E8CE0101960E94E9
:1013380089118FEF99E628E1815090402040E1F72C
:1013480000C00000CE0101960E94D6120FB6F89494
:08135800DEBF0FBECDBF54CE75
:101360000F931F93CF93DF93FC01D9016838710568
:1013700031F194F461387105B1F12CF460387105E4
:1013800009F478C09FC06238710509F459C0643807
:10139000710509F46FC096C0603A710509F448C040
:1013A0002CF46039710509F44BC08CC0603C7105A8
:1013B00009F476C0603F710509F472C083C0CD9115
:1013C000DC911197CE0102968D939C93452B39F0B9
:1013D0009881892F880F880B908381835BC08881D7
:1013E0008083118268C0CD91DC911197CE01049663
:1013F0008D939C93452B99F088819981AA81BB811B
:10140000AC01BD01770F440B542FBA018083918347
:10141000A283B383448345834683478328C00881DE
:1014200019812A813B81008311832283338345C044
:10143000CD91DC911197CE0102968D939C9323C0A0
:10144000CD91DC911197CE0108968D939C93788174
:1014500069815A814B813C812D819E818F8170836E
:10146000618352834383348325839683878381E01A
:1014700090E02AC0CD91DC911197CE0102968D9318
:101480009C93452BA1F099812881892F880F880B87
:101490002083918382838383848385838683E6CFBD
:1014A000CD91DC911197CE0102968D939C9308818A
:1014B000198100831183128213821482158216828D
:1014C0001782D5CF80E090E0DF91CF911F910F91EF
:0214D00008957D
:1014D200CF93DF930E94CA130E94FC13C82FD0E05F
:1014E200DC2FCC270E94FC13BE01682B072E000CB8
:1014F200880B990B0E9481106093740070937500A1
:1015020080937600909377000E94FC13C82FD0E05E
:10151200DC2FCC270E94FC13BE01682B072E000C87
:10152200880B990B0E94811060936C0070936D0080
:1015320080936E0090936F000E94FC13C82FD0E03E
:10154200DC2FCC270E94FC13BE01682B072E000C57
:10155200880B990B0E948110609360007093610068
:1015620080936200909363000E94FC13C82FD0E026
:10157200DC2FCC270E94FC13BE01682B072E000C27
:10158200880B990B0E948110609368007093690028
:1015920080936A0090936B000E94FC13C82FD0E0E6
:1015A200DC2FCC270E94FC13BE01682B072E000CF7
:1015B200880B990B0E948110609364007093650000
:1015C20080936600909367000E94FC13C82FD0E0BE
:1015D200DC2FCC270E94FC13BE01682B072E000CC7
:1015E200880B990B0E9481106093780070937900A8
:1015F20080937A0090937B000E94FC13C82FD0E066
:10160200DC2FCC270E940314BE01682B072E000C8E
:10161200880B990B0E948110609370007093710087
:1016220080937200909373000E942D14DF91CF91EA
:02163200089519
:10163400A5E1B0E0E0E2FBE00C944112470158015F
:101644000E944F142B013C01A80197010E940B1426
:10165400162FC72ED82EF92E862F9C2DAD2DBF2DDB
:1016640089839A83AB83BC83AA81FB81EC81ED805F
:101674003E802F8008850D8B5E2F5F71212F3A2FBE
:101684004F2F60E070E080E090E0211531054105C6
:1016940000E15007610571058105910509F05EC0FF
:1016A4005E2F6E2D732D822D9D8904E30E94EB1114
:1016B4002D873E874F87588B698B7A8B8B8B9C8BBE
:1016C4008D859E8597708F3F974009F447C0A3018D
:1016D4009201612F7C2D8D2D9F2D0E940A149B0158
:1016E400AC01C501B4010E9439148823B9F14986BB
:1016F4005A866B867C8629853A854B855C85C5012F
:10170400B4010E940B14B62E872E982EA92E262FD4
:10171400372F482F592F612F7C2D8D2D9F2D0E94FF
:101724003914811118C02B2D8B2D982DA92DBA2D6C
:1017340089839A83AB83BC833A814B815C816E2D10
:10174400732D822D9D89A1E00E94A913122FC32E0F
:10175400D42EF52E03C01B2D6401FA2C612F7C2D91
:0C1764008D2D9F2D6596E2E10C945D1226
:101770004F925F926F927F928F929F92AF92BF92A1
:10178000CF92DF92EF92FF92CF93DF93CDB7DEB788
:1017900028970FB6F894DEBF0FBECDBF6B017C015A
:1017A000DC01CB0147E1B695A795979587954A95BA
:1017B000D1F799278F579109873191059CF597FDAE
:1017C00036C088248A94982C3FE7A32EB12C04C0FD
:1017D000B594A794979487948A95D2F7D501C401BC
:1017E0008C219D21AE21BF21892B8A2B8B2BD1F0FF
:1017F00020E030E040E85BE7C701B6010E940B142F
:101800006D837E838F839887F7FE04C0C80CD91C34
:10181000EA1CFB1C80949094A094B094C820D9201A
:10182000EA20FB205C2D4D2D3E2D2F2D21C020E0E8
:1018300030E040E85BE7C701B6010E940B14698302
:101840007A838B839C83F7FE0FC0D701C601880F74
:10185000991FAA1FBB1F892B8A2B8B2B19F350E0D2
:1018600040E030E82FEB04C050E040E030E020E002
:10187000652F742F832F922F28960FB6F894DEBF12
:101880000FBECDBFDF91CF91FF90EF90DF90CF9053
:10189000BF90AF909F908F907F906F905F904F9090
:0218A0000895A9
:1018A200CF93DF93CDB7DEB72E970FB6F894DEBF96
:1018B2000FBECDBF888769874A871B862C8784E045
:1018C2008D8782E08E87423018F0822F88608C8765
:1018D200222329F0413019F48C8584608C8787EAB1
:1018E20091E60197F1F700C0000060E0CE01089692
:1018F2000E94EE139FE32DE083E091502040804050
:10190200E1F700C0000060E3CE0108960E94EE13EA
:1019120084E694E00197F1F700C0000060E3CE0195
:1019220008960E94591384E694E00197F1F700C0EB
:10193200000060E3CE0108960E94591392E39A9543
:10194200F1F760E2CE0108960E9459136C8560623D
:10195200CE0108960E944314CE0108960E94D41329
:10196200CE0108960E94D6126E856460CE0108965A
:101972000E944314CE0108960E94C01387E0FE0124
:101982003896DE01119601900D928A95E1F7298130
:101992003A814B815C816D817E818F8190E02E96B0
:1019A2000FB6F894DEBF0FBECDBFDF91CF91089581
:1019B2002F923F924F926F927F928F92AF92BF92ED
:1019C200CF92DF92EF92FF920F931F93CF93DF9309
:1019D200CDB7DEB766970FB6F894DEBF0FBECDBFA8
:1019E2005C013A01862E6901C701817099279C8B9F
:1019F2008B8BE0FC1DC020173107D4F47801EC1862
:101A0200FD08FE8AED8AA70191E1E916F10410F0C2
:101A120040E150E060E270E0CE0101969A8B898B42
:101A22000E94DD1389899A891C0120E8422E0BC08D
:101A32009601682DA301C5010E94BC10C016D106F3
:101A4200ECF2C60125C090E1E916F10458F020E15C
:101A520030E0642DA101C5010E94BC1080E1E81AAA
:101A6200F108F1CF2D893E892F70332789899A8910
:101A7200AC0160E8C5010E94BC108B899C89892B4E
:101A820031F49601682DA301C5010E94BC10C80162
:101A920066960FB6F894DEBF0FBECDBFDF91CF9131
:101AA2001F910F91FF90EF90DF90CF90BF90AF907A
:0E1AB2008F907F906F904F903F902F900895EF
:101AC00010C00E94181458F00E94111440F029F41C
:101AD0005F3F29F00C94331451110C9420140C9492
:101AE00056140E94671168F39923B1F3552391F3BB
:101AF000951B550BBB27AA2762177307840738F07D
:101B00009F5F5F4F220F331F441FAA1FA9F335D0D9
:101B10000E2E3AF0E0E832D091505040E695001C8D
:101B2000CAF72BD0FE2F29D0660F771F881FBB1F47
:101B3000261737074807AB07B0E809F0BB0B802D25
:101B4000BF01FF2793585F4F3AF09E3F510578F051
:101B50000C9433140C9420145F3FE4F3983ED4F3B8
:101B6000869577956795B795F7959F5FC9F7880F25
:101B7000911D9695879597F90895E1E0660F771F77
:101B8000881FBB1F621773078407BA0720F0621B08
:0E1B9000730B840BBA0BEE1F88F7E0950895D7
:101B9E00CF93DF93DC01F90164387105D9F164F458
:101BAE006138710521F16238710509F440C0603861
:101BBE00710509F054C02EC060397105C1F184F46D
:101BCE006838710509F04BC0C081D181CE010296F3
:101BDE0091838083E881F981ED93FC9340833CC02F
:101BEE00603A7105B9F0603C7105A1F038C0C08152
:101BFE00D181CE01029691838083E881F981ED93A4
:101C0E00FC93052E000C660B770B40835183628389
:101C1E00738322C0C081D181CE01029691838083CD
:101C2E00E881F981ED93FC935183408315C0C08107
:101C3E00D181CE01029691838083E881F981ED9363
:101C4E00FC9351834083852F880F880B8283838377
:101C5E00848385838683878381E090E002C080E061
:081C6E0090E0DF91CF91089591
:101C76000FC00E94111438F00E94181420F095230A
:101C860011F00C9433140C94561411240C94201453
:101C96000E94671170F3959FC1F3950F50E0551F91
:101CA600629FF001729FBB27F00DB11D639FAA27AB
:101CB600F00DB11DAA1F649F6627B00DA11D661FFA
:101CC600829F2227B00DA11D621F739FB00DA11D1B
:101CD600621F839FA00D611D221F749F3327A00DD5
:101CE600611D231F849F600D211D822F762F6A2F71
:101CF60011249F5750409AF0F1F088234AF0EE0FD6
:101D0600FF1FBB1F661F771F881F91505040A9F702
:101D16009E3F510580F00C9433140C9420145F3FC1
:101D2600E4F3983ED4F3869577956795B795F7953E
:101D3600E7959F5FC1F7FE2B880F911D96958795B6
:041D460097F908956C
:101D4A0011C00E94111438F00E94181420F039F4BE
:101D5A009F3F19F426F40C9456140EF4E095E7FB11
:101D6A000C943314E92F0E94671158F3BA176207CB
:101D7A0073078407950720F079F4A6F50C941F14CD
:101D8A000EF4E0950B2EBA2FA02D0B01B90190018C
:101D9A000C01CA01A0011124FF27591B99F0593FD0
:101DAA0050F4503E68F11A16F040A22F232F342F18
:101DBA004427585FF3CF469537952795A795F04066
:101DCA005395C9F77EF41F16BA0B620B730B840B7B
:101DDA00BAF09150A1F0FF0FBB1F661F771F881F33
:101DEA00C2F70EC0BA0F621F731F841F48F487958B
:101DFA0077956795B795F7959E3F08F0B0CF93957D
:0E1E0A00880F08F09927EE0F97958795089599
:101E18006F927F928F92EF92FF920F931F93CF93BF
:101E2800DF93CDB7DEB761970FB6F894DEBF0FBE6C
:101E3800CDBFFE01319651E1DF011D925A95E9F7B8
:101E4800A2E0B1E0BA83A9839C838B8377FF09C0A2
:101E58008FE490E090937D0080937C008FEF9FEF5C
:101E680019C03901842E7C01615071097F836E830A
:101E78009801682DA301CF010E94921248855985C7
:101E88002E813F814217530708F49A01F701E20FA8
:101E9800F31F108261960FB6F894DEBF0FBECDBF58
:101EA800DF91CF911F910F91FF90EF908F907F90CE
:041EB8006F9008958A
:101EBC00CF92DF92EF92DC0190E0292F30E0220FDD
:101ECC00331F6901032E000CEE086E2DA60142553E
:101EDC005F4F6F4F6A01E62EFA018491E7FC808117
:101EEC0081110DC02F5F3F4F032E000C440B225568
:101EFC003F4F4F4FF901849147FD808124C0CD9015
:101F0C00DD90EC901297F6014491E7FC408184132C
:101F1C0015C02F5F3F4F032E000C440B22553F4F33
:101F2C004F4FF901949147FD90815FEFC51AD50A87
:101F3C00E50ACD92DD92EC92129701C09F5F9B3027
:0E1F4C0008F4BBCF892FEF90DF90CF9008955F
:101F5A000F931F93CF93DF93DB012D913C91119740
:101F6A0030FF25C017964D915C91189715962D91C3
:101F7A003C9116974217530778F41296ED91FC910B
:101F8A001397808312962D913C9113972F5F3F4FA1
:101F9A0013963C932E93129717962D913C9118976E
:101FAA002F5F3F4F18963C932E93179715C01D9697
:101FBA00ED91FC911E97309719F48FEF9FEF0CC0AB
:101FCA008B01EC010995892BC1F7F801878190856E
:101FDA00019690878783CE01DF91CF911F910F9150
:021FEA00089558
:101FEC00CF939B01482FF901849147FD808180326A
:101FFC00C9F1682F082E000C770B695071096530F8
:10200C00710580F18B3249F5A0E0B0E02F5F3F4FB6
:10201C004F4F02C0A0E0B0E080E090E0CAE0F901D0
:10202C00649147FD6081062E000C770B605371099B
:10203C006A30710560F4C89FF001C99FF00D11243E
:10204C002F5F3F4F4F4FCF01861B970BE8CFAB2B2A
:10205C0069F491958195910909C08D32D9F6A1E069
:10206C00B0E0D4CF2F5F3F4F4F4FBDCFCF910895EE
:10207C002FE789EA93E0215080409040E1F700C0BF
:10208C00000080ED0E94781289E10E94251387E000
:10209C000E9425130E942D1480ED0E9478128BE66D
:1020AC000E94251381E00E9425130E942D1480EDBF
:1020BC000E9478128AE10E94251380E00E94251369
:1020CC000E942D1480ED0E9478128BE10E94251342
:1020DC0088E10E9425130E942D1480ED0E94781235
:1020EC0088E30E94251381E00E9425130E942D1481
:0220FC00089545
:1020FE00E89409C097FB3EF4909580957095619594
:10210E007F4F8F4F9F4F9923A9F0F92F96E9BB2749
:10211E009395F695879577956795B795F111F8CFC5
:10212E00FAF4BB0F11F460FF1BC06F5F7F4F8F4F30
:10213E009F4F16C0882311F096E911C0772321F026
:10214E009EE8872F762F05C0662371F096E8862FBE
:10215E0070E060E02AF09A95660F771F881FDAF715
:0A216E00880F9695879597F908955C
:102178006F927F928F92CF92DF92EF920F931F937D
:10218800CF93DF938C016A01E62EE9013A01862E8E
:10219800620E731E811C37FD8A94C614D704E804A6
:1021A80079F0F6018491E7FC8081B801082E000CD3
:1021B800990B0E94AD0F8FEFC81AD80AE80AEDCF25
:1021C800CE01DF91CF911F910F91EF90DF90CF90CB
:0821D8008F907F906F90089535
:1021E0000E946F1188F09F5798F0B92F9927B75127
:1021F000B0F0E1F0660F771F881F991F1AF0BA95AB
:10220000C9F714C0B13091F00E941F14B1E00895D5
:102210000C941F14672F782F8827B85F39F0B93FC7
:10222000CCF3869577956795B395D9F73EF490955D
:0E2230008095709561957F4F8F4F9F4F089559
:10223E0016BE94EA96BF06B607FEFDCF91B1987F03
:10224E00983011F0903191F490E0880F991F862B01
:10225E0083B984E886BF06B607FEFDCF81B1887FBD
:10226E00883131F0803431F480E008958AE00895A9
:08227E0080E0089584E1089559
:10228600990F0008550FAA0BE0E8FEEF1616170681
:10229600E807F907C0F012161306E407F50798F0E9
:1022A600621B730B840B950B39F40A2661F0232B02
:1022B600242B252B21F408950A2609F4A140A6957E
:0822C6008FEF811D811D0895B9
:1022CE0057FD9058440F551F59F05F3F71F04795D9
:1022DE00880F97FB991F61F09F3F79F087950895BE
:1022EE00121613061406551FF2CF4695F1DF08C0DD
:1022FE00161617061806991FF1CF869571056105FA
:04230E000894089592
:10231200CF92DF92EF92CF93DF93EC016A01E62E28
:10232200FA016491E7FC60810CC041E0CE010E9499
:1023320007128FEFC81AD80AE80AF6016491E7FC7F
:1023420060816111F2CFDF91CF91EF90DF90CF905A
:022352000895EC
:10235400FA0160387105CCF0623871051CF06338FD
:10236400710599F4A081B1819D012C5F3F4F3183A8
:1023740020834D915D916D917C91FC01408351834B
:102384006283738381E090E0089580E090E0089593
:10239400CF93DF9300D000D0CDB7DEB7198220E40D
:1023A4002A8324E12B8324E52C83E1E0F0E0EC0F85
:1023B400FD1FE60FF11D6081640F60680E944314E5
:0E23C4000F900F900F900F90DF91CF91089522
:1023D20097FB10F8169400080F93083098F00850F5
:1023E200232F342F452F562F672F782F892F902D8B
:1023F200F4CF059497958795779567955795479567
:0C240200379527950A95AAF70F910895C9
:10240E00FF920F931F93CF93DF938C01F42E862FA1
:10241E00807F90E1699FE0011124682F642BC80131
:10242E000E9459136C2F6F29C8010E945913DF9116
:0A243E00CF911F910F91FF900895B8
:1024480094EA96BF06B607FEFDCF91B1987F90310A
:1024580071F483B984E886BF06B607FEFDCF81B163
:10246800887F803431F0803231F482E0089580E052
:0A247800089581E0089583E00895BF
:102482002F923F924F925F926F927F928F929F9282
:10249200AF92BF92CF92DF92EF92FF920F931F9370
:1024A200CF93DF93CDB7DEB7CA1BDB0B0FB6F89421
:0824B200DEBF0FBECDBF09948F
:1024BA002A88398848885F846E847D848C849B84CA
:1024CA00AA84B984C884DF80EE80FD800C811B81D8
:1024DA00AA81B981CE0FD11D0FB6F894DEBF0FBE07
:0624EA00CDBFED010895D5
:1024F000CF93C82F84EA86BF06B607FEFDCF81B111
:10250000887F8830B9F7C3B984E886BF06B607FE6E
:10251000FDCF81B1887F883119F00E942D14EACF58
:04252000CF910895BA
:10252400A2E0B0E0E8E9F2E10C944F128C013A83A6
:1025340029839E012F5F3F4F0E947600F80120817E
:1025440024FF02C08FEF9FEF2296E4E00C946B12FD
:102554000F931F93CF938C01C62F64600E94EE13D8
:1025640000C06C2F6B7FC8010E94EE1380E18A9536
:0C257400F1F700C0CF911F910F91089566
:10258000CF92DF92EF926B01E82EA82FCB01FC01D6
:102590002491A7FD2081222319F00196A11DF7CFD8
:0C25A0008C199D09EF90DF90CF900895FA
:1025AC00CF93DF93EC0161E00E94431483EF91E041
:1025BC000197F1F700C0000040E060E0CE010E94FE
:0825CC00CA11DF91CF910895BF
:1025D40097FB072E16F4009407D077FD09D00E94CC
:1025E400FE1207FC05D03EF4909581959F4F089507
:0825F400709561957F4F089579
:1025FC00AA1BBB1B51E107C0AA1FBB1FA617B7071D
:10260C0010F0A61BB70B881F991F5A95A9F7809538
:08261C009095BC01CD01089569
:10262400A0E0B0E0E8E1F3E10C9451129E01265FD2
:102634003F4F4F81588569858D819E810E949113FA
:06264400E2E00C946D12AF
:10264A0083B984E886BF06B607FEFDCF81B1887FCD
:10265A00883221F0803321F481E0089580E00895E2
:04266A0082E008956D
:10266E00CF93C62F60E00E941F11811108C08C2FDE
:10267E000E946813811103C00E94531480E0CF9111
:02268E000895AD
:10269000092E0394000C11F4882352F0BB0F40F470
:1026A000BF2B11F460FF04C06F5F7F4F8F4F9F4FB0
:0226B00008958B
:1026B2001F93CF93DF93EC01162F0E94EE13612F2D
:0E26C200CE010E94AA12DF91CF911F910895C0
:1026D00083B984E886BF06B607FEFDCF81B1887F47
:0C26E000883211F085E1089580E0089533
:1026EC009A01462FDC01F901549147FD50815D930D
:0C26FC002F5F3F4F4F4F5111F6CF089554
:10270800992777FD05C005900D920197E1F7089587
:0A27180001900D920197E1F708957A
:102722000F931F9389019A01462F6FEF7FE70E9453
:082732000C0F1F910F91089597
:10273A000024A7FD00942A173005400550056005BE
:08274A0070058005900508955B
:102752000024A7FD00942A0F301D401D501D601D4E
:08276200701D801D901D0895FB
:10276A00EC010E9467140E946614CE010E9468144C
:06277A00CE010E94641470
:1027800062E00E94431483EF91E00197F1F700C0EB
:0427900000000895A8
:1027940080ED0E9478128BE30E94251381ED0E9444
:0427A400241208955E
:1027A800FC016581262F246025836C600E944314F8
:0227B800089582
:1027BA00FC01480F591FE417F50711F06193FBCF8D
:0227CA00089570
:1027CC009C01215431092A31310508F480620895A5
:0E27DC00FC012381622B80810E943713089537
:0E27EA0028E0FC01238360E00E94EE130895B6
:0E27F80084EC86BF06B607FEFDCF83B10895C0
:0E28060084E886BF06B607FEFDCF83B10895B5
:0E2814005058BB27AA270E94A50E0C9448130B
:0E28220000240A9416161706180609060895D3
:0E28300000240A9412161306140605060895D5
:0E283E00E894BB2766277727CB0197F908950A
:0E284C000E94F0106894B1110C9420140895AD
:0C285A0084E986BF06B604FCFDCF08959B
:0C28660097F99F6780E870E060E008953B
:0A2872000E94431108F481E008956C
:0A287C000E94431108F48FEF089545
:0828860040E00E9407120895D2
:08288E0011B880E280B9089541
:082896000E94600D0C94481330
:08289E000E943B0E0C9448134C
:0628A60084E986BF0895DD
:0628AC009FEF80EC08958F
:0628B20080E090E00895B3
:0628B80080E090E00895AD
:0628BE0080E090E00895A7
:0428C4000C94000070
:0428C8000E94550015
:0228CC0008956D
:0228CE0008956B
:0228D000089569
:00000001FF
